0PUBLIC COMERCIO A.VAREJISTA DE ALIMENTOS50247022/0001-29  Junho    2019   000004695ALEXANDRA BENITO ROCHA DOS SANTOS       NUTRICIONISTA JR                           00006193900275ADMINISTRAÇAO     ADMINISTRAÇAO                           23702720000315291010100/00/000000330000
100001Horas Normais       P0033000000022000
100040Horas Extras c/ 60% P0000008000000002
100043Horas extras 60% BH P0000008000000002
100065DSR Reflexo H.ExtrasP0000004000000001
100250Desc.Adto Salarial  D0012566600000000
100302INSS                D0003632200001100
100310IRRF Adto Salarial  D0000633400000000
100545Refeição            D0000010000000100
2003302000016842200161778003302000033020000026416001982000000000000/00/0000
3
0PUBLIC COMERCIO A.VAREJISTA DE ALIMENTOS50247022/0001-29  Junho    2019   000004769ALINE OLIVEIRA DE CAMPOS                ASSISTENTE ECOMMERCE PLENO                 000010460408  ADMINISTRAÇAO     ADMINISTRAÇAO                           23721840000037578000000/00/000000260000
100001Horas Normais       P0026000000022000
100043Horas extras 60% BH P0000003200000001
100065DSR Reflexo H.ExtrasP0000000800000000
100250Desc.Adto Salarial  D0010053500000000
100296Vale Transporte     D0001560000007600
100302INSS                D0002340300000900
100310IRRF Adto Salarial  D0000346500000000
100545Refeição            D0000010000000100
2002600400014310300116937002600400026004000020803001560400000000000/00/0000
3
0PUBLIC COMERCIO A.VAREJISTA DE ALIMENTOS50247022/0001-29  Junho    2019   000004856ANTERIO LUNA DE LIMA                    TEC.SEGURANÇA DO TRABALHO                  000051689267  ADMINISTRAÇAO     ADMINISTRAÇAO                           23715210000026256010200/00/000000341642
100001Horas Normais       P0034164200022000
100250Desc.Adto Salarial  D0013264200000000
100302INSS                D0003758000001100
100310IRRF Adto Salarial  D0000401500000000
100545Refeição            D0000010000000100
2003416420017433700167305003416420034164200027331002049850000000000/00/0000
3
0PUBLIC COMERCIO A.VAREJISTA DE ALIMENTOS50247022/0001-29  Junho    2019   000002723CARLOS EDUARDO DE SOUZA RIBEIRO         ANALISTA T.I JR                            000015693397  ADMINISTRAÇAO     ADMINISTRAÇAO                           23715210000004043000000/00/000000187686
100001Horas Normais       P0018768600022000
100036Horas Extras c/ 100%P0001020900000559
100040Horas Extras c/ 60% P0000225200000139
100043Horas extras 60% BH P0000273000000200
100060Adicional Noturno   P0000004800000017
100065DSR Reflexo H.ExtrasP0000379800000427
100069DSR Reflexo Adic    P0000001200000004
100250Desc.Adto Salarial  D0007507400000000
100296Vale Transporte     D0001126100004800
100302INSS                D0001860600000900
100545Refeição            D0000010000000100
2002067350010504100101694002067350020673500016538001316610000000000/00/0000
3
0PUBLIC COMERCIO A.VAREJISTA DE ALIMENTOS50247022/0002-00  Junho    2019   000002615CLAUDINEI DE SA SIQUEIRA                SUB.GERENTE                                000026211392  ADMINISTRAÇAO     ADMINISTRAÇAO                           23715210000031406000000/00/000000637237
100001Horas Normais       P0063723700022000
100250Desc.Adto Salarial  D0019649100000000
100302INSS                D0006423300001100
100304IRRF                D0001223600000200
100310IRRF Adto Salarial  D0005840400000000
100545Refeição            D0000010000000100
2006372370033146400305773005839450063723700050978003823420000000000/00/0000
3
0PUBLIC COMERCIO A.VAREJISTA DE ALIMENTOS50247022/0001-29  Junho    2019   000004331CLEUMA APARECIDA MIRANDA NEVES          LOCUTOR(A)                                 00002002200064ADMINISTRAÇAO     ADMINISTRAÇAO                           23715210000024336000100/00/000000254525
100001Horas Normais       P0022907300019800
100036Horas Extras c/ 100%P0000860000000343
100043Horas extras 60% BH P0000910100000455
100056Hrs Atestado até 15 P0002545300002200
100065DSR Reflexo H.ExtrasP0000538700000439
100250Desc.Adto Salarial  D0009985100000000
100302INSS                D0002498500000900
100310IRRF Adto Salarial  D0000195900000000
100545Refeição            D0000010000000100
100594Coparticipação      D0000100000001000
2002776140012789500149719002776140027761400022209001758040000000000/00/0000
3
0PUBLIC COMERCIO A.VAREJISTA DE ALIMENTOS50247022/0001-29  Junho    2019   000004096DAYANA DONEGA CARMONA                   ASSIS.MARKETING PLENO                      00001124000401ADMINISTRAÇAO     ADMINISTRAÇAO                           23715210000023568000000/00/000000276706
100001Horas Normais       P0027670600022000
100250Desc.Adto Salarial  D0010607700000000
100302INSS                D0002490300000900
100310IRRF Adto Salarial  D0000460500000000
100545Refeição            D0000010000000100
2002767060013568500141021002767060027670600022136001660240000000000/00/0000
3
0PUBLIC COMERCIO A.VAREJISTA DE ALIMENTOS50247022/0002-00  Junho    2019   000004697ELAINE CRISTINA MAIA FERREIRA           NUTRICIONISTA JR                           000013044291  ADMINISTRAÇAO     ADMINISTRAÇAO                           34116590000015413010100/00/000000300000
100001Horas Normais       P0030000000022000
100043Horas extras 60% BH P0001330900000606
100065DSR Reflexo H.ExtrasP0000332700000226
100250Desc.Adto Salarial  D0011567700000000
100302INSS                D0003482900001100
100310IRRF Adto Salarial  D0000432300000000
100545Refeição            D0000010000000100
2003166360015492900161707003166360031663600025330001966360000000000/00/0000
3
0PUBLIC COMERCIO A.VAREJISTA DE ALIMENTOS50247022/0001-29  Junho    2019   000001409ELINALDO GOMES DOS SANTOS               GERENTE OPERACIONAL                        00005595000341ADMINISTRAÇAO     ADMINISTRAÇAO                           23715210000094042000000/00/000001062062
100001Horas Normais       P0106206200022000
100250Desc.Adto Salarial  D0030799800000000
100302INSS                D0006423300001100
100304IRRF                D0007064000000400
100310IRRF Adto Salarial  D0011682700000000
100545Refeição            D0000010000000100
2010620620055979800502264005839450106206200084964006372370000000000/00/0000
3
0PUBLIC COMERCIO A.VAREJISTA DE ALIMENTOS50247022/0001-29  Junho    2019   000004440FLAVIA LIMA DE FREITAS MAMEDE           NUTRICIONISTA JR                           00001100500275ADMINISTRAÇAO     ADMINISTRAÇAO                           23715210000024929010100/00/000000330000
100016Horas Aux.MaternidadP0033000000022000
100043Horas extras 60% BH P0000192000000048
100065DSR Reflexo H.ExtrasP0000048000000019
100250Desc.Adto Salarial  D0012567400000000
100302INSS                D0003656400001100
100310IRRF Adto Salarial  D0000632600000000
100594Coparticipação      D0001211900012119
2003324000018068300151717003324000033240000026592002004000000000000/00/0000
3
0PUBLIC COMERCIO A.VAREJISTA DE ALIMENTOS50247022/0001-29  Junho    2019   000004753GABRIELA ALMEIDA DE PAULA               ASSIST MARKETING SENIOR                    00004129600344ADMINISTRAÇAO     ADMINISTRAÇAO                           23714260000014525000000/00/000000280000
100001Horas Normais       P0028000000022000
100043Horas extras 60% BH P0000020400000006
100065DSR Reflexo H.ExtrasP0000005100000002
100250Desc.Adto Salarial  D0010717000000000
100296Vale Transporte     D0001680000004000
100302INSS                D0002522200000900
100310IRRF Adto Salarial  D0000483000000000
100545Refeição            D0000010000000100
2002802550015412200126133002802550028025500022420001682550000000000/00/0000
3
0PUBLIC COMERCIO A.VAREJISTA DE ALIMENTOS50247022/0001-29  Junho    2019   000004506GUSTAVO GABRIEL ROMEIRO                 LOCUTOR PLENO                              00007044400016ADMINISTRAÇAO     ADMINISTRAÇAO                           23715210000025212000100/00/000000300000
100036Horas Extras c/ 100%P0002381800000844
100040Horas Extras c/ 60% P0000090900000025
100060Adicional Noturno   P0000014500000032
100065DSR Reflexo H.ExtrasP0000618200000432
100069DSR Reflexo Adic    P0000003600000008
100087Folga Feriado FeriasP0003000000000300
100126Saldo de Salário    P0027000000019800
100172Férias Proporc.ResciP0020000000014640
100174Média H.Extra FériasP0001004500000722
100182Adic.Noturno Férias P0000011800000026
1001841/3 Férias Rescisão P0007004700000000
10022213o Salário Proporc.P0015000000000600
100224Média H.Extras 13o PP0000845500000612
100232Adic.Noturno 13o ProP0000005200000011
100250Desc.Adto Salarial  D0011613200000000
100264Líquido Rescisão    D0056118000000000
100293Vale transp não utilD0002332800005400
100296Vale Transporte     D0001620000004400
100302INSS                D0003641900001100
100303INSS 13o Salário    D0001268000000800
100310IRRF Adto Salarial  D0000386800000000
2007698070076980700000000003310900048959700039167002110900000000000/00/0000
3
0PUBLIC COMERCIO A.VAREJISTA DE ALIMENTOS50247022/0001-29  Junho    2019   000002785GUSTAVO PEREIRA GOUVEIA DA SILVA        SUB.GERENTE                                000090853406  ADMINISTRAÇAO     ADMINISTRAÇAO                           23739080000001730000000/00/000000637237
100001Horas Normais       P0063723700022000
100250Desc.Adto Salarial  D0019649100000000
100302INSS                D0006423300001100
100304IRRF                D0001223600000200
100310IRRF Adto Salarial  D0005840400000000
100545Refeição            D0000010000000100
2006372370033146400305773005839450063723700050978003823420000000000/00/0000
3
0PUBLIC COMERCIO A.VAREJISTA DE ALIMENTOS50247022/0001-29  Junho    2019   000003216JOAO FELIPE OLIVEIRA DA SILVA           COMPRADOR JUNIOR                           000093296329  ADMINISTRAÇAO     ADMINISTRAÇAO                           23715210000021327000000/00/000000500000
100001Horas Normais       P0050000000022000
100043Horas extras 60% BH P0004072700001112
100065DSR Reflexo H.ExtrasP0001018200000428
100250Desc.Adto Salarial  D0013285900000000
100302INSS                D0006059900001100
100304IRRF                D0001614300000200
100310IRRF Adto Salarial  D0001330100000000
100545Refeição            D0000010000000100
2005509090022300200327907005509090055090900044072004047490000000000/00/0000
3
0PUBLIC COMERCIO A.VAREJISTA DE ALIMENTOS50247022/0001-29  Junho    2019   000000429JOSE GILBERTO ASSIS SILVA               GERENTE OPERACIONAL                        00002734500280ADMINISTRAÇAO     ADMINISTRAÇAO                           23715210000091022020200/00/000001062062
100001Horas Normais       P0106206200022000
100250Desc.Adto Salarial  D0030799800000000
100302INSS                D0006423300001100
100304IRRF                D0006021300000400
100310IRRF Adto Salarial  D0011682700000000
100521Plano Saúde Dep.    D0000030000000000
100545Refeição            D0000010000000100
2010620620054967100512391005839450106206200084964006372370000000000/00/0000
3
0PUBLIC COMERCIO A.VAREJISTA DE ALIMENTOS50247022/0001-29  Junho    2019   000002962LEANDRO GUIDI SALTINI                   GERENTE MARKETING                          000070111306  ADMINISTRAÇAO     ADMINISTRAÇAO                           23731700000007660000000/00/000000519924
100001Horas Normais       P0003466200001440
100012Horas Férias DiurnasP0048526200020520
100134Média Horas Extras FP0000025800000006
1001401/3 Férias          P0016182400000000
100281Desconto Adto FériasD0055101200000000
100301INSS Férias         D0005995100001100
100302INSS                D0000428200001100
100308IRRF Férias         D0003638100000300
100545Refeição            D0000010000000100
2006820060065172600030280005839450068200600054560000346620000000000/00/000003/06/2019 a 03/07/2019  
3
0PUBLIC COMERCIO A.VAREJISTA DE ALIMENTOS50247022/0001-29  Junho    2019   000001990LUCAS GUIMARAES SILVA                   SUB.GERENTE                                0070422140030 ADMINISTRAÇAO     ADMINISTRAÇAO                           23715210000009541000000/00/000000637237
100001Horas Normais       P0063723700022000
100250Desc.Adto Salarial  D0019649100000000
100302INSS                D0006423300001100
100304IRRF                D0001223600000200
100310IRRF Adto Salarial  D0005840400000000
100545Refeição            D0000010000000100
2006372370033146400305773005839450063723700050978003823420000000000/00/0000
3
0PUBLIC COMERCIO A.VAREJISTA DE ALIMENTOS50247022/0002-00  Junho    2019   000004875LUIS CARLOS DA SILVA CANDIDO            LOCUTOR JR                                 000062833059  ADMINISTRAÇAO     ADMINISTRAÇAO                           34100660000043072000000/00/000000208800
100001Horas Normais       P0020880000022000
100250Desc.Adto Salarial  D0008352000000000
100296Vale Transporte     D0001252800004800
100302INSS                D0001879200000900
100545Refeição            D0000010000000100
2002088000011494000093860002088000020880000016704001252800000000000/00/0000
3
0PUBLIC COMERCIO A.VAREJISTA DE ALIMENTOS50247022/0001-29  Junho    2019   000004028LUIZ FERNANDO CARVALHO                  ANALISTA T.I JR                            000072789331  ADMINISTRAÇAO     ADMINISTRAÇAO                           23704610000017738000000/00/000000187686
100018Horas Faltas        D0000625600000720
100022Horas Faltas DSR    D0000625600000720
100060Adicional Noturno   P0000029000000142
100069DSR Reflexo Adic    P0000007300000025
100087Folga Feriado FeriasP0001876900000300
100126Saldo de Salário    P0016891700019800
100172Férias Proporc.ResciP0001564100001820
100174Média H.Extra FériasP0000010500000007
100182Adic.Noturno Férias P0000002000000007
1001841/3 Férias Rescisão P0000525500000000
10022213o Salário Proporc.P0009384300000600
100224Média H.Extras 13o PP0000528900000612
100232Adic.Noturno 13o ProP0000112800000636
100250Desc.Adto Salarial  D0007507400000000
100258Insuficiencia AnteriD0000103200000000
100264Líquido Rescisão    D0015841800000000
100293Vale transp não utilD0002504800005800
100296Vale Transporte     D0001013500004200
100302INSS                D0001360300000800
100303INSS 13o Salário    D0000802000000800
100526Saida Antecipada/AtrD0000548800000626
2003093300030933000000000001700490027030900021623000949750000000000/00/0000
3
0PUBLIC COMERCIO A.VAREJISTA DE ALIMENTOS50247022/0001-29  Junho    2019   000004385MARCELO ARAGAO PAIVA DOS SANTOS         GERENTE OPERACIONAL                        000058547241  ADMINISTRAÇAO     ADMINISTRAÇAO                           23715210000024733030300/00/000001062062
100001Horas Normais       P0106206200022000
100250Desc.Adto Salarial  D0030799800000000
100302INSS                D0006423300001100
100304IRRF                D0005499900000400
100310IRRF Adto Salarial  D0011682700000000
100545Refeição            D0000010000000100
2010620620054415700517905005839450106206200084964006372370000000000/00/0000
3
0PUBLIC COMERCIO A.VAREJISTA DE ALIMENTOS50247022/0001-29  Junho    2019   000004893MARCELO RODRIGUES LOPES PEREIRA         ANALISTA TI PLENO                          000091119337  ADMINISTRAÇAO     ADMINISTRAÇAO                           00000000000000000030300/00/000000000000
100001Horas Normais       P0019905600019040
100036Horas Extras c/ 100%P0001322400000620
100043Horas extras 60% BH P0000164300000059
100060Adicional Noturno   P0000021200000101
100065DSR Reflexo H.ExtrasP0000354000000323
100069DSR Reflexo Adic    P0000005000000014
100250Desc.Adto Salarial  D0007962200000000
100302INSS                D0001959500000900
100545Refeição            D0000010000000100
2002177250009931700118408002177250021772500017418001381030000000000/00/0000
3
0PUBLIC COMERCIO A.VAREJISTA DE ALIMENTOS50247022/0001-29  Junho    2019   000002697MARIA GLEICIANE FREITAS MEDEIROS        RECEPCIONISTA                              000087901350  ADMINISTRAÇAO     ADMINISTRAÇAO                           23715210000003803010100/00/000000181906
100001Horas Normais       P0018190600022000
100043Horas extras 60% BH P0000019800000009
100065DSR Reflexo H.ExtrasP0000005000000003
100250Desc.Adto Salarial  D0007276200000000
100302INSS                D0001639300000900
100545Refeição            D0000010000000100
100594Coparticipação      D0000100000001000
2001821540009025500091899001821540018215400014572001093920000000000/00/0000
3
0PUBLIC COMERCIO A.VAREJISTA DE ALIMENTOS50247022/0001-29  Junho    2019   000004876MARIELSON DE SOUZA SILVA                LOCUTOR(A)                                 00009525640   ADMINISTRAÇAO     ADMINISTRAÇAO                           23715210000026269020400/00/000000254525
100001Horas Normais       P0025452500022000
100036Horas Extras c/ 100%P0001700700000721
100043Horas extras 60% BH P0000379500000203
100065DSR Reflexo H.ExtrasP0000520100000429
100250Desc.Adto Salarial  D0010181000000000
100296Vale Transporte     D0001527200004800
100302INSS                D0002524700000900
100545Refeição            D0000010000000100
2002805280014242900138099002805280028052800022442001787180000000000/00/0000
3
0PUBLIC COMERCIO A.VAREJISTA DE ALIMENTOS50247022/0002-00  Junho    2019   000001146RAFAEL OLIVEIRA FAIAS                   GERENTE OPERACIONAL                        000037607437  ADMINISTRAÇAO     ADMINISTRAÇAO                           23715210000091519000000/00/000001062062
100001Horas Normais       P0106206200022000
100250Desc.Adto Salarial  D0030799800000000
100302INSS                D0006423300001100
100304IRRF                D0007064000000400
100310IRRF Adto Salarial  D0011682700000000
100545Refeição            D0000010000000100
2010620620055979800502264005839450106206200084964006372370000000000/00/0000
3
0PUBLIC COMERCIO A.VAREJISTA DE ALIMENTOS50247022/0002-00  Junho    2019   000000895RAFAELA CORINA BATISTA ANDRADE          TEC.SEGURANÇA DO TRABALHO                  00006095200325ADMINISTRAÇAO     ADMINISTRAÇAO                           23715210000091249000000/00/000000352585
100001Horas Normais       P0035258500022000
100043Horas extras 60% BH P0000038500000009
100065DSR Reflexo H.ExtrasP0000009600000003
100250Desc.Adto Salarial  D0012944400000000
100302INSS                D0003883700001100
100310IRRF Adto Salarial  D0001159000000000
100545Refeição            D0000010000000100
2003530660017997100173095003530660035306600028245002120320000000000/00/0000
3
0PUBLIC COMERCIO A.VAREJISTA DE ALIMENTOS50247022/0001-29  Junho    2019   000003356RAFHAEL DA SILVA SERPA                  ANALISTA TI PLENO                          000040297401  ADMINISTRAÇAO     ADMINISTRAÇAO                           23715210000021775000000/00/000000229680
100001Horas Normais       P0001531200001440
100012Horas Férias DiurnasP0021436800020520
100043Horas extras 60% BH P0000200400000112
100065DSR Reflexo H.ExtrasP0000050100000028
100070Adic.Noturno Férias P0000043500000205
100134Média Horas Extras FP0001180700001118
1001401/3 Férias          P0007552900000000
100281Desconto Adto FériasD0026772900000000
100301INSS Férias         D0003323500001100
100302INSS                D0000196000001100
100308IRRF Férias         D0000117500000100
100545Refeição            D0000010000000100
100594Coparticipação      D0000100000001000
2003199560030519900014757003199560031995600025596000178170000000000/00/000003/06/2019 a 03/07/2019  
3
0PUBLIC COMERCIO A.VAREJISTA DE ALIMENTOS50247022/0001-29  Junho    2019   000002674RENATA CRISTINA LIMA BORDIN             GERENTE OPERACIONAL                        000038231357  ADMINISTRAÇAO     ADMINISTRAÇAO                           23715210000003660010100/00/000001062062
100250Desc.Adto Salarial  D0030799800000000
100302INSS                D0006423300001100
100304IRRF                D0006542600000400
100310IRRF Adto Salarial  D0011682700000000
100521Plano Saúde Dep.    D0008244100000000
100585Horas Prorrog Aux. MP0106206200022000
2010620620063692500425137005839450106206200084964006372370000000000/00/0000
3
0PUBLIC COMERCIO A.VAREJISTA DE ALIMENTOS50247022/0001-29  Junho    2019   000002558ROSANIA LUIZ DE SOUZA                   LOCUTORA SENIOR                            000093661122  ADMINISTRAÇAO     ADMINISTRAÇAO                           23715210000030069030300/00/000000447640
100001Horas Normais       P0044764000022000
100250Desc.Adto Salarial  D0017905600000000
100258Insuficiencia AnteriD0001577100000000
100302INSS                D0004924000001100
100521Plano Saúde Dep.    D0004123200000000
100545Refeição            D0000010000000100
2004476400028539900162241004476400044764000035811002685840000000000/00/0000
3
0PUBLIC COMERCIO A.VAREJISTA DE ALIMENTOS50247022/0002-00  Junho    2019   000003635SIMONE CRISTINA RODRIGUES               LOCUTOR JR                                 000034746341  ADMINISTRAÇAO     ADMINISTRAÇAO                           23715210000022549000000/00/000000208800
100001Horas Normais       P0020880000022000
100036Horas Extras c/ 100%P0001037700000528
100060Adicional Noturno   P0000022100000110
100065DSR Reflexo H.ExtrasP0000259400000244
100069DSR Reflexo Adic    P0000005500000017
100250Desc.Adto Salarial  D0008352000000000
100296Vale Transporte     D0001252800005000
100302INSS                D0001998400000900
100545Refeição            D0000010000000100
2002220470011613200105915002220470022204700017763001385270000000000/00/0000
3
0PUBLIC COMERCIO A.VAREJISTA DE ALIMENTOS50247022/0002-00  Junho    2019   000004201TAIAN MENDES MACHADO                    ANALISTA T.I JR                            00004346200401ADMINISTRAÇAO     ADMINISTRAÇAO                           23717890000000728000000/00/000000187686
100001Horas Normais       P0018768600022000
100036Horas Extras c/ 100%P0000944100000532
100060Adicional Noturno   P0000032100000153
100065DSR Reflexo H.ExtrasP0000236000000246
100069DSR Reflexo Adic    P0000008000000028
100250Desc.Adto Salarial  D0007507400000000
100296Vale Transporte     D0001126100004800
100302INSS                D0001798900000900
100545Refeição            D0000010000000100
2001998880010442400095464001998880019988800015991001248140000000000/00/0000
3
0PUBLIC COMERCIO A.VAREJISTA DE ALIMENTOS50247022/0001-29  Junho    2019   000003472THAIS GOUVEIA DE MENEZES                ANALISTA DE MARKETING JR                   00004801900348ADMINISTRAÇAO     ADMINISTRAÇAO                           23715210000022375000000/00/000000313200
100001Horas Normais       P0031320000022000
100043Horas extras 60% BH P0000041800000011
100065DSR Reflexo H.ExtrasP0000010500000004
100250Desc.Adto Salarial  D0011859300000000
100302INSS                D0003450900001100
100310IRRF Adto Salarial  D0000668700000000
100545Refeição            D0000010000000100
2003137230015988900153834003137230031372300025097001884430000000000/00/0000
3
0PUBLIC COMERCIO A.VAREJISTA DE ALIMENTOS50247022/0001-29  Junho    2019   000003242VINICIUS DE ARAUJO NOBRE SOARES         COORD DE T.I                               00007037800377ADMINISTRAÇAO     ADMINISTRAÇAO                           23702870000117381000000/00/000000400000
100001Horas Normais       P0040000000022000
100250Desc.Adto Salarial  D0014208000000000
100302INSS                D0004400000001100
100310IRRF Adto Salarial  D0001792000000000
100545Refeição            D0000010000000100
100594Coparticipação      D0000832000008320
2004000000021242000187580004000000040000000032000002400000000000000/00/0000
3
0PUBLIC COMERCIO A.VAREJISTA DE ALIMENTOS50247022/0002-00  Junho    2019   000004199WELLINGTON DA SILVA FERNANDES           ANALISTA TI PLENO                          000084861327  ADMINISTRAÇAO     ADMINISTRAÇAO                           01340390000036778010100/00/000000228030
100001Horas Normais       P0022803000022000
100036Horas Extras c/ 100%P0001264500000606
100040Horas Extras c/ 60% P0000088400000032
100060Adicional Noturno   P0000010000000029
100065DSR Reflexo H.ExtrasP0000338200000315
100069DSR Reflexo Adic    P0000002500000007
100250Desc.Adto Salarial  D0009121200000000
100276Pensão Judicial     D0005575300002500
100302INSS                D0002205500000900
100545Refeição            D0000010000000100
100594Coparticipação      D0000100000001000
2002450660017012000074946002450660024506600019605001538540000000000/00/0000
3
0PUBLIC COMERCIO A.VAREJISTA DE ALIMENTOS50247022/0002-00  Junho    2019   000004286ALICE TABATA DUMONT                     APRENDIZ                                   00006574200456LOJA              APRENDIZES                              23715210000024303000000/00/000000000454
100001Horas Normais       P0004812400010600
100004Horas Repouso Rem.DiP0002633200005800
100250Desc.Adto Salarial  D0002360800000000
100296Vale Transporte     D0000288700003600
100302INSS                D0000595600000800
100545Refeição            D0000010000000100
2000744560003255100041905000744560007445600001489000508480000000000/00/0000
3
0PUBLIC COMERCIO A.VAREJISTA DE ALIMENTOS50247022/0001-29  Junho    2019   000004775BEATRIZ SILVA DE OLIVEIRA               APRENDIZ                                   00006196000460LOJA              APRENDIZES                              23715210000026011000000/00/000000000454
100001Horas Normais       P0004449200009800
100004Horas Repouso Rem.DiP0002996400006600
100250Desc.Adto Salarial  D0002360800000000
100302INSS                D0000595600000800
100545Refeição            D0000010000000100
2000744560002966400044792000744560007445600001489000508480000000000/00/0000
3
0PUBLIC COMERCIO A.VAREJISTA DE ALIMENTOS50247022/0001-29  Junho    2019   000004785BIANCA DE SOUZA MAFRA                   APRENDIZ                                   00008874100461LOJA              APRENDIZES                              23715210000026030000000/00/000000000454
100001Horas Normais       P0004449200009800
100004Horas Repouso Rem.DiP0002996400006600
100250Desc.Adto Salarial  D0002360800000000
100296Vale Transporte     D0000267000003800
100302INSS                D0000595600000800
100545Refeição            D0000010000000100
2000744560003233400042122000744560007445600001489000508480000000000/00/0000
3
0PUBLIC COMERCIO A.VAREJISTA DE ALIMENTOS50247022/0001-29  Junho    2019   000004776BRUNA THAYSA TEODOZIO                   APRENDIZ                                   00001163600457LOJA              APRENDIZES                              23715210000026031000000/00/000000000454
100001Horas Normais       P0004449200009800
100004Horas Repouso Rem.DiP0002996400006600
100250Desc.Adto Salarial  D0002360800000000
100296Vale Transporte     D0000267000003800
100302INSS                D0000594700000800
100526Saida Antecipada/AtrD0000011400000015
100545Refeição            D0000010000000100
2000744560003243900042017000743420007434200001486000507340000000000/00/0000
3
0PUBLIC COMERCIO A.VAREJISTA DE ALIMENTOS50247022/0001-29  Junho    2019   000004777CHARLES WILLIAN SILVA MEDEIROS          APRENDIZ                                   00008884500460LOJA              APRENDIZES                              23715210000025996000000/00/000000000454
100001Horas Normais       P0004449200009800
100004Horas Repouso Rem.DiP0002996400006600
100018Horas Faltas        D0000272400000600
100022Horas Faltas DSR    D0000272400000600
100250Desc.Adto Salarial  D0002360800000000
100296Vale Transporte     D0000267000003800
100302INSS                D0000547700000800
100526Saida Antecipada/AtrD0000054500000112
100545Refeição            D0000010000000100
2000744560003784800036608000684630006846300001369000448550000000000/00/0000
3
0PUBLIC COMERCIO A.VAREJISTA DE ALIMENTOS50247022/0001-29  Junho    2019   000004799CLAUDIO ROBERTO DA SILVA                APRENDIZ                                   000023666445  LOJA              APRENDIZES                              23727230000027161000000/00/000000000454
100001Horas Normais       P0004449200009800
100004Horas Repouso Rem.DiP0002996400006600
100250Desc.Adto Salarial  D0002360800000000
100302INSS                D0000587200000800
100526Saida Antecipada/AtrD0000105200000219
100545Refeição            D0000010000000100
2000744560003063200043824000734040007340400001468000497960000000000/00/0000
3
0PUBLIC COMERCIO A.VAREJISTA DE ALIMENTOS50247022/0002-00  Junho    2019   000004294CLAUDIO RYAN GOIS GONCALVES             APRENDIZ                                   000023043456  LOJA              APRENDIZES                              23715210000024316000000/00/000000000454
100001Horas Normais       P0004812400010600
100004Horas Repouso Rem.DiP0002633200005800
100250Desc.Adto Salarial  D0002360800000000
100296Vale Transporte     D0000288700004000
100302INSS                D0000595600000800
100545Refeição            D0000010000000100
2000744560003255100041905000744560007445600001489000508480000000000/00/0000
3
0PUBLIC COMERCIO A.VAREJISTA DE ALIMENTOS50247022/0002-00  Junho    2019   000004287CLEITON RODRIGUES DA SILVA              APRENDIZ                                   000008507451  LOJA              APRENDIZES                              00507310060007899000000/00/000000000454
100001Horas Normais       P0004812400010600
100004Horas Repouso Rem.DiP0002633200005800
100018Horas Faltas        D0000272400000600
100022Horas Faltas DSR    D0000544800001200
100250Desc.Adto Salarial  D0002360800000000
100296Vale Transporte     D0000288700004000
100302INSS                D0000529500000800
100526Saida Antecipada/AtrD0000009100000012
100545Refeição            D0000010000000100
2000744560004015300034303000661930006619300001323000425850000000000/00/0000
3
0PUBLIC COMERCIO A.VAREJISTA DE ALIMENTOS50247022/0001-29  Junho    2019   000004804DAKMAN TEIXEIRA DE SOUTO                APRENDIZ                                   00008877700461LOJA              APRENDIZES                              23727230000027159000000/00/000000000454
100001Horas Normais       P0004449200009800
100004Horas Repouso Rem.DiP0002996400006600
100250Desc.Adto Salarial  D0002360800000000
100302INSS                D0000595600000800
100545Refeição            D0000010000000100
2000744560002966400044792000744560007445600001489000508480000000000/00/0000
3
0PUBLIC COMERCIO A.VAREJISTA DE ALIMENTOS50247022/0002-00  Junho    2019   000004288DAVI DA LUZ PEREIRA                     APRENDIZ                                   00006051400454LOJA              APRENDIZES                              23715210000024289000000/00/000000000454
100001Horas Normais       P0004812400010600
100004Horas Repouso Rem.DiP0002633200005800
100250Desc.Adto Salarial  D0002360800000000
100296Vale Transporte     D0000288700004000
100302INSS                D0000594800000800
100526Saida Antecipada/AtrD0000009800000013
100545Refeição            D0000010000000100
2000744560003264100041815000743580007435800001487000507500000000000/00/0000
3
0PUBLIC COMERCIO A.VAREJISTA DE ALIMENTOS50247022/0001-29  Junho    2019   000004778DIEGO DUTRA DOS SANTOS                  APRENDIZ                                   00008106000458LOJA              APRENDIZES                              23715210000026013000000/00/000000000454
100001Horas Normais       P0004449200009800
100004Horas Repouso Rem.DiP0002996400006600
100250Desc.Adto Salarial  D0002360800000000
100302INSS                D0000595600000800
100545Refeição            D0000010000000100
2000744560002966400044792000744560007445600001489000508480000000000/00/0000
3
0PUBLIC COMERCIO A.VAREJISTA DE ALIMENTOS50247022/0001-29  Junho    2019   000004795ELLEN MAYARA SILVA SANTOS               APRENDIZ                                   000024869442  LOJA              APRENDIZES                              23715210000026020000000/00/000000000454
100001Horas Normais       P0004449200009800
100004Horas Repouso Rem.DiP0002996400006600
100250Desc.Adto Salarial  D0002360800000000
100296Vale Transporte     D0000267000003800
100302INSS                D0000594700000800
100526Saida Antecipada/AtrD0000011400000015
100545Refeição            D0000010000000100
2000744560003243900042017000743420007434200001486000507340000000000/00/0000
3
0PUBLIC COMERCIO A.VAREJISTA DE ALIMENTOS50247022/0001-29  Junho    2019   000004802GABRIEL OLIVEIRA DA SILVA               APRENDIZ                                   00004447100457LOJA              APRENDIZES                              23715210000026008000000/00/000000000454
100001Horas Normais       P0004176800009200
100004Horas Repouso Rem.DiP0002996400006600
100056Hrs Atestado até 15 P0000272400000600
100250Desc.Adto Salarial  D0002360800000000
100302INSS                D0000594700000800
100526Saida Antecipada/AtrD0000011400000015
100545Refeição            D0000010000000100
2000744560002976900044687000743420007434200001486000507340000000000/00/0000
3
0PUBLIC COMERCIO A.VAREJISTA DE ALIMENTOS50247022/0002-00  Junho    2019   000004295HIAN SANTOS SILVA                       APRENDIZ                                   000004422456  LOJA              APRENDIZES                              23715210000024293000000/00/000000000454
100001Horas Normais       P0004812400010600
100004Horas Repouso Rem.DiP0002633200005800
100250Desc.Adto Salarial  D0002360800000000
100296Vale Transporte     D0000288700004000
100302INSS                D0000595600000800
100545Refeição            D0000010000000100
2000744560003255100041905000744560007445600001489000508480000000000/00/0000
3
0PUBLIC COMERCIO A.VAREJISTA DE ALIMENTOS50247022/0002-00  Junho    2019   000004290ISABELLA MARQUES DOS SANTOS             APRENDIZ                                   00006542000456LOJA              APRENDIZES                              23715210000024317000000/00/000000000454
100001Horas Normais       P0004540000010000
100004Horas Repouso Rem.DiP0002633200005800
100056Hrs Atestado até 15 P0000272400000600
100250Desc.Adto Salarial  D0002360800000000
100296Vale Transporte     D0000288700004000
100302INSS                D0000575400000800
100526Saida Antecipada/AtrD0000252000000533
100545Refeição            D0000010000000100
100594Coparticipação      D0000150000001500
2000744560003636900038087000719360007193600001438000483280000000000/00/0000
3
0PUBLIC COMERCIO A.VAREJISTA DE ALIMENTOS50247022/0002-00  Junho    2019   000004289ITALO VIEIRA DA SILVA                   APRENDIZ                                   00009532100432LOJA              APRENDIZES                              23715210000024280000000/00/000000000454
100001Horas Normais       P0004812400010600
100004Horas Repouso Rem.DiP0002633200005800
100250Desc.Adto Salarial  D0002360800000000
100296Vale Transporte     D0000288700004000
100302INSS                D0000588900000800
100526Saida Antecipada/AtrD0000084000000151
100545Refeição            D0000010000000100
2000744560003332400041132000736160007361600001472000500080000000000/00/0000
3
0PUBLIC COMERCIO A.VAREJISTA DE ALIMENTOS50247022/0001-29  Junho    2019   000004805JAIMISON JOSE ESTEVAM                   APRENDIZ                                   00006590400463LOJA              APRENDIZES                              23715210000026068000000/00/000000000454
100001Horas Normais       P0004449200009800
100004Horas Repouso Rem.DiP0002996400006600
100250Desc.Adto Salarial  D0002360800000000
100302INSS                D0000594000000800
100526Saida Antecipada/AtrD0000019700000026
100545Refeição            D0000010000000100
2000744560002984500044611000742590007425900001485000506510000000000/00/0000
3
0PUBLIC COMERCIO A.VAREJISTA DE ALIMENTOS50247022/0002-00  Junho    2019   000004291JESSICA ENEAS DE SOUSA                  APRENDIZ                                   00004589100452LOJA              APRENDIZES                              23715210000024278000000/00/000000000454
100001Horas Normais       P0004812400010600
100004Horas Repouso Rem.DiP0002633200005800
100250Desc.Adto Salarial  D0002360800000000
100302INSS                D0000595600000800
100545Refeição            D0000010000000100
2000744560002966400044792000744560007445600001489000508480000000000/00/0000
3
0PUBLIC COMERCIO A.VAREJISTA DE ALIMENTOS50247022/0001-29  Junho    2019   000004796JOAO VITOR DA SILVA DURAES              APRENDIZ                                   000012787463  LOJA              APRENDIZES                              23715210000026025000000/00/000000000454
100001Horas Normais       P0004449200009800
100004Horas Repouso Rem.DiP0002996400006600
100250Desc.Adto Salarial  D0002360800000000
100302INSS                D0000594900000800
100526Saida Antecipada/AtrD0000008300000011
100545Refeição            D0000010000000100
2000744560002974000044716000743730007437300001487000507650000000000/00/0000
3
0PUBLIC COMERCIO A.VAREJISTA DE ALIMENTOS50247022/0001-29  Junho    2019   000004790JOAO VITOR OLIVEIRA CARDOSO             APRENDIZ                                   000027983456  LOJA              APRENDIZES                              23715210000026006000000/00/000000000454
100001Horas Normais       P0004176800009200
100004Horas Repouso Rem.DiP0002996400006600
100056Hrs Atestado até 15 P0000272400000600
100250Desc.Adto Salarial  D0002360800000000
100302INSS                D0000590000000800
100526Saida Antecipada/AtrD0000070400000133
100545Refeição            D0000010000000100
2000744560003031200044144000737520007375200001475000501440000000000/00/0000
3
0PUBLIC COMERCIO A.VAREJISTA DE ALIMENTOS50247022/0001-29  Junho    2019   000004794JOHNATA KENNEDY CARVALHO DE ARAUJO      APRENDIZ                                   00001290400449LOJA              APRENDIZES                              23715210000026040000000/00/000000000454
100001Horas Normais       P0004449200009800
100004Horas Repouso Rem.DiP0002996400006600
100250Desc.Adto Salarial  D0002360800000000
100302INSS                D0000595600000800
100545Refeição            D0000010000000100
2000744560002966400044792000744560007445600001489000508480000000000/00/0000
3
0PUBLIC COMERCIO A.VAREJISTA DE ALIMENTOS50247022/0001-29  Junho    2019   000004779JOYCE SOUZA LIMA                        APRENDIZ                                   00002607900461LOJA              APRENDIZES                              23715210000025995000000/00/000000000454
100001Horas Normais       P0004449200009800
100004Horas Repouso Rem.DiP0002996400006600
100250Desc.Adto Salarial  D0002360800000000
100302INSS                D0000585900000800
100526Saida Antecipada/AtrD0000121800000241
100545Refeição            D0000010000000100
2000744560003078500043671000732380007323800001464000496300000000000/00/0000
3
0PUBLIC COMERCIO A.VAREJISTA DE ALIMENTOS50247022/0001-29  Junho    2019   000004783KAREN DE SOUSA PIETRO                   APRENDIZ                                   00003621100378LOJA              APRENDIZES                              23715210000026027000000/00/000000000454
100001Horas Normais       P0004449200009800
100004Horas Repouso Rem.DiP0002996400006600
100250Desc.Adto Salarial  D0002360800000000
100302INSS                D0000588500000800
100526Saida Antecipada/AtrD0000089300000158
100545Refeição            D0000010000000100
2000744560003048600043970000735630007356300001471000499550000000000/00/0000
3
0PUBLIC COMERCIO A.VAREJISTA DE ALIMENTOS50247022/0001-29  Junho    2019   000004801LARISSA COSTA SILVA                     APRENDIZ                                   00000672400460LOJA              APRENDIZES                              23715210000026045000000/00/000000000454
100001Horas Normais       P0004449200009800
100004Horas Repouso Rem.DiP0002996400006600
100250Desc.Adto Salarial  D0002360800000000
100302INSS                D0000592600000800
100526Saida Antecipada/AtrD0000037100000049
100545Refeição            D0000010000000100
2000744560003000500044451000740850007408500001481000504770000000000/00/0000
3
0PUBLIC COMERCIO A.VAREJISTA DE ALIMENTOS50247022/0002-00  Junho    2019   000004296LARISSA KAYLANE DA SILVA BRITO          APRENDIZ                                   000035345444  LOJA              APRENDIZES                              23715210000024284000000/00/000000000454
100001Horas Normais       P0004540000010000
100004Horas Repouso Rem.DiP0002633200005800
100056Hrs Atestado até 15 P0000272400000600
100250Desc.Adto Salarial  D0002360800000000
100296Vale Transporte     D0000288700004000
100302INSS                D0000595600000800
100545Refeição            D0000010000000100
2000744560003255100041905000744560007445600001489000508480000000000/00/0000
3
0PUBLIC COMERCIO A.VAREJISTA DE ALIMENTOS50247022/0001-29  Junho    2019   000004784LAYZA LIMA DA SILVA SANTOS              APRENDIZ                                   00004404600457LOJA              APRENDIZES                              23715210000026035000000/00/000000000454
100001Horas Normais       P0004449200009800
100004Horas Repouso Rem.DiP0002996400006600
100250Desc.Adto Salarial  D0002360800000000
100296Vale Transporte     D0000267000003800
100302INSS                D0000595600000800
100545Refeição            D0000010000000100
2000744560003233400042122000744560007445600001489000508480000000000/00/0000
3
0PUBLIC COMERCIO A.VAREJISTA DE ALIMENTOS50247022/0002-00  Junho    2019   000004297LEONARDO MAGALHAES PINHO                APRENDIZ                                   00008651500545LOJA              APRENDIZES                              23715210000024313000000/00/000000000454
100001Horas Normais       P0004540000010000
100004Horas Repouso Rem.DiP0002633200005800
100056Hrs Atestado até 15 P0000272400000600
100250Desc.Adto Salarial  D0002360800000000
100296Vale Transporte     D0000288700004000
100302INSS                D0000593400000800
100526Saida Antecipada/AtrD0000027200000036
100545Refeição            D0000010000000100
2000744560003280100041655000741840007418400001483000505760000000000/00/0000
3
0PUBLIC COMERCIO A.VAREJISTA DE ALIMENTOS50247022/0001-29  Junho    2019   000004787LETICIA APARECIDA GOMES DE LIMA         APRENDIZ                                   00002225700463LOJA              APRENDIZES                              23715210000026002000000/00/000000000454
100001Horas Normais       P0004449200009800
100004Horas Repouso Rem.DiP0002996400006600
100250Desc.Adto Salarial  D0002360800000000
100302INSS                D0000595600000800
100545Refeição            D0000010000000100
2000744560002966400044792000744560007445600001489000508480000000000/00/0000
3
0PUBLIC COMERCIO A.VAREJISTA DE ALIMENTOS50247022/0001-29  Junho    2019   000004788LUCAS TAVARES DE FARIAS                 APRENDIZ                                   00003988000461LOJA              APRENDIZES                              23715210000026005000000/00/000000000454
100001Horas Normais       P0003904400008600
100004Horas Repouso Rem.DiP0002996400006600
100056Hrs Atestado até 15 P0000544800001200
100250Desc.Adto Salarial  D0002360800000000
100302INSS                D0000592500000800
100526Saida Antecipada/AtrD0000039300000052
100545Refeição            D0000010000000100
2000744560003002600044430000740630007406300001481000504550000000000/00/0000
3
0PUBLIC COMERCIO A.VAREJISTA DE ALIMENTOS50247022/0002-00  Junho    2019   000004298MAICON XAVIER DE LIMA                   APRENDIZ                                   00001258500449LOJA              APRENDIZES                              23715210000024285000000/00/000000000454
100001Horas Normais       P0004812400010600
100004Horas Repouso Rem.DiP0002633200005800
100250Desc.Adto Salarial  D0002360800000000
100296Vale Transporte     D0000288700003800
100302INSS                D0000595600000800
100545Refeição            D0000010000000100
2000744560003255100041905000744560007445600001489000508480000000000/00/0000
3
0PUBLIC COMERCIO A.VAREJISTA DE ALIMENTOS50247022/0001-29  Junho    2019   000004789MARIANA DE PAULA COSTA SANTOS           APRENDIZ                                   000048168461  LOJA              APRENDIZES                              23715210000025984000000/00/000000000454
100001Horas Normais       P0004449200009800
100004Horas Repouso Rem.DiP0002996400006600
100250Desc.Adto Salarial  D0002360800000000
100302INSS                D0000591200000800
100526Saida Antecipada/AtrD0000054500000112
100545Refeição            D0000010000000100
2000744560003016500044291000739110007391100001478000503030000000000/00/0000
3
0PUBLIC COMERCIO A.VAREJISTA DE ALIMENTOS50247022/0001-29  Junho    2019   000004786MATHEUS MAX MONTEIRO DUARTE             APRENDIZ                                   00000693900460LOJA              APRENDIZES                              23715210000025998000000/00/000000000454
100001Horas Normais       P0004449200009800
100004Horas Repouso Rem.DiP0002996400006600
100250Desc.Adto Salarial  D0002360800000000
100296Vale Transporte     D0000267000003800
100302INSS                D0000595600000800
100545Refeição            D0000010000000100
2000744560003233400042122000744560007445600001489000508480000000000/00/0000
3
0PUBLIC COMERCIO A.VAREJISTA DE ALIMENTOS50247022/0001-29  Junho    2019   000004792NICOLAS AMARAL LOPES GARCIA             APRENDIZ                                   00007149100461LOJA              APRENDIZES                              23715210000025985000000/00/000000000454
100001Horas Normais       P0004449200009800
100004Horas Repouso Rem.DiP0002996400006600
100018Horas Faltas        D0000181600000400
100022Horas Faltas DSR    D0000181600000400
100250Desc.Adto Salarial  D0002360800000000
100302INSS                D0000562200000800
100526Saida Antecipada/AtrD0000054500000112
100545Refeição            D0000010000000100
2000744560003350700040949000702790007027900001405000466710000000000/00/0000
3
0PUBLIC COMERCIO A.VAREJISTA DE ALIMENTOS50247022/0001-29  Junho    2019   000004800RAFAELE DA SILVA ALMEIDA                APRENDIZ                                   00003179700460LOJA              APRENDIZES                              23715210000026037000000/00/000000000454
100001Horas Normais       P0004449200009800
100004Horas Repouso Rem.DiP0002996400006600
100250Desc.Adto Salarial  D0002360800000000
100302INSS                D0000594600000800
100526Saida Antecipada/AtrD0000012100000016
100545Refeição            D0000010000000100
2000744560002977500044681000743350007433500001486000507270000000000/00/0000
3
0PUBLIC COMERCIO A.VAREJISTA DE ALIMENTOS50247022/0001-29  Junho    2019   000004798RENAN GOMES LELES                       APRENDIZ                                   00004303900463LOJA              APRENDIZES                              23715210000026018000000/00/000000000454
100001Horas Normais       P0004449200009800
100004Horas Repouso Rem.DiP0002996400006600
100250Desc.Adto Salarial  D0002360800000000
100302INSS                D0000593200000800
100526Saida Antecipada/AtrD0000030300000040
100545Refeição            D0000010000000100
2000744560002994300044513000741530007415300001483000505450000000000/00/0000
3
0PUBLIC COMERCIO A.VAREJISTA DE ALIMENTOS50247022/0001-29  Junho    2019   000004803RENAN SANTOS MEIRA                      APRENDIZ                                   00001699700452LOJA              APRENDIZES                              23715210000026079000000/00/000000000454
100001Horas Normais       P0004449200009800
100004Horas Repouso Rem.DiP0002996400006600
100250Desc.Adto Salarial  D0002360800000000
100296Vale Transporte     D0000267000003800
100302INSS                D0000595600000800
100545Refeição            D0000010000000100
2000744560003233400042122000744560007445600001489000508480000000000/00/0000
3
0PUBLIC COMERCIO A.VAREJISTA DE ALIMENTOS50247022/0001-29  Junho    2019   000004793SABRYNA FERREIRA DE OLIVEIRA            APRENDIZ                                   00004278600378LOJA              APRENDIZES                              23715210000026004000000/00/000000000454
100001Horas Normais       P0004449200009800
100004Horas Repouso Rem.DiP0002996400006600
100250Desc.Adto Salarial  D0002360800000000
100296Vale Transporte     D0000267000003800
100302INSS                D0000595600000800
100545Refeição            D0000010000000100
2000744560003233400042122000744560007445600001489000508480000000000/00/0000
3
0PUBLIC COMERCIO A.VAREJISTA DE ALIMENTOS50247022/0001-29  Junho    2019   000004791SAMUEL VICTOR DA SILVA                  APRENDIZ                                   00002207700461LOJA              APRENDIZES                              23715210000026046000000/00/000000000454
100001Horas Normais       P0004449200009800
100004Horas Repouso Rem.DiP0002996400006600
100250Desc.Adto Salarial  D0002360800000000
100296Vale Transporte     D0000267000003800
100302INSS                D0000592400000800
100526Saida Antecipada/AtrD0000040100000053
100545Refeição            D0000010000000100
2000744560003270300041753000740550007405500001481000504470000000000/00/0000
3
0PUBLIC COMERCIO A.VAREJISTA DE ALIMENTOS50247022/0001-29  Junho    2019   000004781SARAH ANGELIM DO NASCIMENTO             APRENDIZ                                   00008700100432LOJA              APRENDIZES                              23715210000026003000000/00/000000000454
100001Horas Normais       P0004449200009800
100004Horas Repouso Rem.DiP0002996400006600
100250Desc.Adto Salarial  D0002360800000000
100302INSS                D0000566200000800
100526Saida Antecipada/AtrD0000367000000805
100545Refeição            D0000010000000100
2000744560003304000041416000707860007078600001415000471780000000000/00/0000
3
0PUBLIC COMERCIO A.VAREJISTA DE ALIMENTOS50247022/0002-00  Junho    2019   000004292STEFANY MOREIRA DE ALMEIDA              APRENDIZ                                   00006393700454LOJA              APRENDIZES                              23715210000024519000000/00/000000000454
100001Horas Normais       P0004540000010000
100004Horas Repouso Rem.DiP0002633200005800
100056Hrs Atestado até 15 P0000272400000600
100250Desc.Adto Salarial  D0002360800000000
100302INSS                D0000595600000800
100545Refeição            D0000010000000100
100594Coparticipação      D0000300000003000
2000744560003266400041792000744560007445600001489000508480000000000/00/0000
3
0PUBLIC COMERCIO A.VAREJISTA DE ALIMENTOS50247022/0001-29  Junho    2019   000004780THIAGO FERREIRA PAES                    APRENDIZ                                   00003577300378LOJA              APRENDIZES                              23715210000026023000000/00/000000000454
100001Horas Normais       P0004449200009800
100004Horas Repouso Rem.DiP0002996400006600
100250Desc.Adto Salarial  D0002360800000000
100296Vale Transporte     D0000267000003800
100302INSS                D0000594700000800
100526Saida Antecipada/AtrD0000011400000015
100545Refeição            D0000010000000100
2000744560003243900042017000743420007434200001486000507340000000000/00/0000
3
0PUBLIC COMERCIO A.VAREJISTA DE ALIMENTOS50247022/0002-00  Junho    2019   000004293VICTORIA ROBERTA DOS SANTOS VIEIRA      APRENDIZ                                   00001201600457LOJA              APRENDIZES                              23715210000024283000000/00/000000000454
100001Horas Normais       P0004540000010000
100004Horas Repouso Rem.DiP0002633200005800
100056Hrs Atestado até 15 P0000272400000600
100250Desc.Adto Salarial  D0002360800000000
100302INSS                D0000594600000800
100526Saida Antecipada/AtrD0000012900000017
100545Refeição            D0000010000000100
2000744560002978300044673000743270007432700001486000507190000000000/00/0000
3
0PUBLIC COMERCIO A.VAREJISTA DE ALIMENTOS50247022/0001-29  Junho    2019   000004797VINICIUS BORGES DE SOUSA                APRENDIZ                                   000012647463  LOJA              APRENDIZES                              23715210000025994000000/00/000000000454
100001Horas Normais       P0004449200009800
100004Horas Repouso Rem.DiP0002996400006600
100250Desc.Adto Salarial  D0002360800000000
100302INSS                D0000595600000800
100545Refeição            D0000010000000100
2000744560002966400044792000744560007445600001489000508480000000000/00/0000
3
0PUBLIC COMERCIO A.VAREJISTA DE ALIMENTOS50247022/0002-00  Junho    2019   000004299WESTHER MAGNO DA SILVA                  APRENDIZ                                   000068609432  LOJA              APRENDIZES                              23715210000024302000000/00/000000000454
100001Horas Normais       P0004812400010600
100004Horas Repouso Rem.DiP0002633200005800
100250Desc.Adto Salarial  D0002360800000000
100302INSS                D0000577400000800
100526Saida Antecipada/AtrD0000227000000500
100545Refeição            D0000010000000100
2000744560003175200042704000721860007218600001443000485780000000000/00/0000
3
0PUBLIC COMERCIO A.VAREJISTA DE ALIMENTOS50247022/0002-00  Junho    2019   000004300YASMIN ANDRADE SILVA OLIVEIRA           APRENDIZ                                   000057894444  LOJA              APRENDIZES                              23715210000024311000000/00/000000000454
100001Horas Normais       P0004812400010600
100004Horas Repouso Rem.DiP0002633200005800
100250Desc.Adto Salarial  D0002360800000000
100296Vale Transporte     D0000288700003800
100302INSS                D0000595600000800
100545Refeição            D0000010000000100
2000744560003255100041905000744560007445600001489000508480000000000/00/0000
3
0PUBLIC COMERCIO A.VAREJISTA DE ALIMENTOS50247022/0001-29  Junho    2019   000004433DENILSON OLIVEIRA SOUSA                 BALC. PERECIVEIS                           009434172040  AÇOUGUE           AVES                                    23715210000024837000000/00/000000140500
100001Horas Normais       P0014050000022000
100036Horas Extras c/ 100%P0000930300000717
100065DSR Reflexo H.ExtrasP0000283100000426
100250Desc.Adto Salarial  D0005620000000000
100296Vale Transporte     D0000843000004800
100302INSS                D0001219000000800
100526Saida Antecipada/AtrD0000025500000024
100530Empréstimo (Parcela)D0000833000000000
100545Refeição            D0000010000000100
2001526340008550500067129001523790015237900012190000961790000000000/00/0000
3
0PUBLIC COMERCIO A.VAREJISTA DE ALIMENTOS50247022/0001-29  Junho    2019   000003177FABIO JUNIOR ANDRADE                    BALC.PERECIVEIS PLENO                      009228522040  AÇOUGUE           AVES                                    23715210000020878000000/00/000000170007
100001Horas Normais       P0017000700022000
100036Horas Extras c/ 100%P0001117900000714
100043Horas extras 60% BH P0000002100000001
100065DSR Reflexo H.ExtrasP0000280000000337
100250Desc.Adto Salarial  D0006800300000000
100302INSS                D0001656000000900
100545Refeição            D0000010000000100
2001840070008466300099344001840070018400700014720001160040000000000/00/0000
3
0PUBLIC COMERCIO A.VAREJISTA DE ALIMENTOS50247022/0001-29  Junho    2019   000004335FRANCISCO MATEUS DE SOUSA               BALC. PERECIVEIS                           0059081320050 AÇOUGUE           AVES                                    23715210000024373000000/00/000000140500
100001Horas Normais       P0014050000022000
100036Horas Extras c/ 100%P0000932400000718
100043Horas extras 60% BH P0000005100000003
100060Adicional Noturno   P0000031100000226
100065DSR Reflexo H.ExtrasP0000234400000340
100069DSR Reflexo Adic    P0000007800000036
100250Desc.Adto Salarial  D0005620000000000
100296Vale Transporte     D0000843000005000
100302INSS                D0001220800000800
100545Refeição            D0000010000000100
2001526080007693800075670001526080015260800012208000964080000000000/00/0000
3
0PUBLIC COMERCIO A.VAREJISTA DE ALIMENTOS50247022/0002-00  Junho    2019   000004665IGOR SILVA COSTA                        BALC PERECIVEIS JR                         000033504368  AÇOUGUE           AVES                                    01332800000048113010100/00/000000140500
100001Horas Normais       P0014050000022000
100036Horas Extras c/ 100%P0000951600000727
100043Horas extras 60% BH P0000149900000128
100060Adicional Noturno   P0000097700000739
100065DSR Reflexo H.ExtrasP0000275400000418
100069DSR Reflexo Adic    P0000024400000154
100250Desc.Adto Salarial  D0005620000000000
100296Vale Transporte     D0000843000005000
100302INSS                D0001243900000800
100545Refeição            D0000010000000100
2001554900007716900078321001554900015549000012439000992900000000000/00/0000
3
0PUBLIC COMERCIO A.VAREJISTA DE ALIMENTOS50247022/0002-00  Junho    2019   000004873IREMAR SILVA MIRANDA                    BALC PERECIVEIS JR                         0002466510030 AÇOUGUE           AVES                                    01340710000047659000000/00/000000140500
100001Horas Normais       P0014050000022000
100036Horas Extras c/ 100%P0000936700000720
100043Horas extras 60% BH P0000109000000104
100060Adicional Noturno   P0000191600001500
100065DSR Reflexo H.ExtrasP0000318300000458
100069DSR Reflexo Adic    P0000058300000433
100250Desc.Adto Salarial  D0005620000000000
100296Vale Transporte     D0000843000004800
100302INSS                D0001253100000800
100545Refeição            D0000010000000100
2001566390007726100079378001566390015663900012531001004390000000000/00/0000
3
0PUBLIC COMERCIO A.VAREJISTA DE ALIMENTOS50247022/0001-29  Junho    2019   000004691ITALO FELIPE MOURA                      BALC. PERECIVEIS                           00003246700449AÇOUGUE           AVES                                    23715210000025664000000/00/000000140500
100001Horas Normais       P0014050000022000
100036Horas Extras c/ 100%P0000917500000711
100060Adicional Noturno   P0000217100001700
100065DSR Reflexo H.ExtrasP0000279200000422
100069DSR Reflexo Adic    P0000066100000510
100250Desc.Adto Salarial  D0005620000000000
100296Vale Transporte     D0000843000004800
100302INSS                D0001242300000800
100545Refeição            D0000010000000100
2001552990007715300078146001552990015529900012423000990990000000000/00/0000
3
0PUBLIC COMERCIO A.VAREJISTA DE ALIMENTOS50247022/0001-29  Junho    2019   000004188MATEUS DO NASCIMENTO CANA BRASIL        BALC. PERECIVEIS                           0071708540050 AÇOUGUE           AVES                                    23715210000023877000000/00/000000140500
100001Horas Normais       P0014050000022000
100036Horas Extras c/ 100%P0000945200000724
100040Horas Extras c/ 60% P0000001700000001
100060Adicional Noturno   P0000020200000135
100065DSR Reflexo H.ExtrasP0000236700000342
100069DSR Reflexo Adic    P0000005100000023
100250Desc.Adto Salarial  D0005620000000000
100296Vale Transporte     D0000843000005000
100302INSS                D0001219000000800
100526Saida Antecipada/AtrD0000020200000019
100545Refeição            D0000010000000100
2001525890007712200075467001523870015238700012190000961870000000000/00/0000
3
0PUBLIC COMERCIO A.VAREJISTA DE ALIMENTOS50247022/0002-00  Junho    2019   000004717MIROSMAR DE AZEVEDO MARACAS             BALC PERECIVEIS JR                         000047495414  AÇOUGUE           AVES                                    01332800000036387000000/00/000000140500
100001Horas Normais       P0014050000022000
100036Horas Extras c/ 100%P0000940900000722
100043Horas extras 60% BH P0000015300000009
100065DSR Reflexo H.ExtrasP0000239100000344
100250Desc.Adto Salarial  D0005620000000000
100296Vale Transporte     D0000843000004800
100302INSS                D0001219600000800
100545Refeição            D0000010000000100
2001524530007692600075527001524530015245300012196000962530000000000/00/0000
3
0PUBLIC COMERCIO A.VAREJISTA DE ALIMENTOS50247022/0001-29  Junho    2019   000004285RICARDO SILVINO DA CRUZ                 BALC. PERECIVEIS                           00004298700245AÇOUGUE           AVES                                    23715210000024299010100/00/000000140500
100001Horas Normais       P0000936700001440
100012Horas Férias DiurnasP0013113300020520
100070Adic.Noturno Férias P0000117200000910
100134Média Horas Extras FP0000943800001446
1001401/3 Férias          P0004724300000000
100281Desconto Adto FériasD0017197800000000
100301INSS Férias         D0001700800000900
100302INSS                D0000084300000900
100545Refeição            D0000009400000100
2001983530018992300008430001983530019835300015868000093670000000000/00/000003/06/2019 a 03/07/2019  
3
0PUBLIC COMERCIO A.VAREJISTA DE ALIMENTOS50247022/0001-29  Junho    2019   000004842VAGNER SANTANA SANTOS                   BALC. PERECIVEIS                           000012300408  AÇOUGUE           AVES                                    23728920000011588010100/00/000000140500
100001Horas Normais       P0014050000022000
100036Horas Extras c/ 100%P0000730200000543
100060Adicional Noturno   P0000195200001517
100065DSR Reflexo H.ExtrasP0000182600000251
100069DSR Reflexo Adic    P0000048800000349
100250Desc.Adto Salarial  D0005620000000000
100302INSS                D0001216500000800
100530Empréstimo (Parcela)D0003249900000000
100545Refeição            D0000010000000100
2001520680010096400051104001520680015206800012165000958680000000000/00/0000
3
0PUBLIC COMERCIO A.VAREJISTA DE ALIMENTOS50247022/0002-00  Junho    2019   000004764WELLINGTON ALVES SOARES                 BALC PERECIVEIS JR                         000086131027  AÇOUGUE           AVES                                    23719580000026908000000/00/000000140500
100001Horas Normais       P0014050000022000
100036Horas Extras c/ 100%P0000951600000727
100043Horas extras 60% BH P0000160100000134
100065DSR Reflexo H.ExtrasP0000338300000517
100250Desc.Adto Salarial  D0005620000000000
100302INSS                D0001240000000800
100545Refeição            D0000010000000100
2001550000006870000086300001550000015500000012400000988000000000000/00/0000
3
0PUBLIC COMERCIO A.VAREJISTA DE ALIMENTOS50247022/0001-29  Junho    2019   000003379WILLIAM FERNANDES DOS SANTOS            BALC. PERECIVEIS                           00005507000337AÇOUGUE           AVES                                    23702540000029502010100/00/000000140500
100001Horas Normais       P0014050000022000
100036Horas Extras c/ 100%P0000932400000718
100065DSR Reflexo H.ExtrasP0000233100000339
100250Desc.Adto Salarial  D0005620000000000
100296Vale Transporte     D0000843000005000
100302INSS                D0001217200000800
100361Farmácia            D0000817000000000
100545Refeição            D0000010000000100
2001521550008507200067083001521550015215500012172000959550000000000/00/0000
3
0PUBLIC COMERCIO A.VAREJISTA DE ALIMENTOS50247022/0002-00  Junho    2019   000004123ALEX FERNANDES OLIVEIRA                 AÇOUGUEIRO JR                              000014267309  AÇOUGUE           AÇOUGUE                                 01346810000001930020200/00/000000173396
100001Horas Normais       P0017339600022000
100043Horas extras 60% BH P0000096700000046
100060Adicional Noturno   P0000027800000146
100065DSR Reflexo H.ExtrasP0000024200000018
100069DSR Reflexo Adic    P0000007000000026
100250Desc.Adto Salarial  D0006935800000000
100296Vale Transporte     D0001040400004800
100302INSS                D0001399600000800
100545Refeição            D0000010000000100
2001749530009385800081095001749530017495300013996001055950000000000/00/0000
3
0PUBLIC COMERCIO A.VAREJISTA DE ALIMENTOS50247022/0001-29  Junho    2019   000004858ALEXANDRE MOREIRA DO NASCIMENTO         AÇOUGUEIRO JR                              00002069100241AÇOUGUE           AÇOUGUE                                 23702540000016228010300/00/000000188099
100001Horas Normais       P0018809900022000
100250Desc.Adto Salarial  D0007524000000000
100296Vale Transporte     D0001128600004800
100302INSS                D0001692800000900
100545Refeição            D0000010000000100
2001880990010355400084545001880990018809900015047001128590000000000/00/0000
3
0PUBLIC COMERCIO A.VAREJISTA DE ALIMENTOS50247022/0001-29  Junho    2019   000004849ANDERSON ALVES DE MENESES               AÇOUGUEIRO JR                              000051536249  AÇOUGUE           AÇOUGUE                                 23766470000005857030300/00/000000188099
100001Horas Normais       P0018809900022000
100043Horas extras 60% BH P0000006800000003
100060Adicional Noturno   P0000281300001627
100065DSR Reflexo H.ExtrasP0000001700000001
100069DSR Reflexo Adic    P0000070300000406
100250Desc.Adto Salarial  D0007524000000000
100302INSS                D0001725300000900
100545Refeição            D0000010000000100
2001917000009259300099107001917000019170000015336001164600000000000/00/0000
3
0PUBLIC COMERCIO A.VAREJISTA DE ALIMENTOS50247022/0001-29  Junho    2019   000003742ANDRE LOPES DE SOUSA                    SUB.ENCAR.ACOUGUE                          000024614137  AÇOUGUE           AÇOUGUE                                 23715210000022602010100/00/000000265516
100001Horas Normais       P0026551600022000
100043Horas extras 60% BH P0000003200000001
100060Adicional Noturno   P0000041800000144
100065DSR Reflexo H.ExtrasP0000000800000000
100069DSR Reflexo Adic    P0000010500000026
100250Desc.Adto Salarial  D0010363200000000
100302INSS                D0002394700000900
100310IRRF Adto Salarial  D0000257400000000
100545Refeição            D0000010000000100
100594Coparticipação      D0000116700001167
2002660790013142000134659002660790026607900021286001598730000000000/00/0000
3
0PUBLIC COMERCIO A.VAREJISTA DE ALIMENTOS50247022/0002-00  Junho    2019   000004196CICERO ALVES DE SOUSA                   AÇOUGUEIRO JR                              00000494000009AÇOUGUE           AÇOUGUE                                 23715310000007472000000/00/000000173396
100001Horas Normais       P0016761600021240
100043Horas extras 60% BH P0000260600000204
100056Hrs Atestado até 15 P0000578000000720
100060Adicional Noturno   P0000182600001135
100065DSR Reflexo H.ExtrasP0000065200000049
100069DSR Reflexo Adic    P0000045700000253
100250Desc.Adto Salarial  D0006935800000000
100296Vale Transporte     D0001040400004800
100302INSS                D0001610400000900
100545Refeição            D0000010000000100
2001789370009596600082971001789370017893700014314001095790000000000/00/0000
3
0PUBLIC COMERCIO A.VAREJISTA DE ALIMENTOS50247022/0002-00  Junho    2019   000003806CICERO ANTONIO BARBOSA OLIVEIRA         AÇOUGUEIRO PL                              000053435071  AÇOUGUE           AÇOUGUE                                 10432800000003148020200/00/000000195639
100001Horas Normais       P0019563900022000
100036Horas Extras c/ 100%P0001345800000734
100043Horas extras 60% BH P0000346200000226
100065DSR Reflexo H.ExtrasP0000423000000445
100250Desc.Adto Salarial  D0007825600000000
100296Vale Transporte     D0001173800005000
100302INSS                D0001951100000900
100545Refeição            D0000010000000100
2002167890010960500107184002167890021678900017343001385330000000000/00/0000
3
0PUBLIC COMERCIO A.VAREJISTA DE ALIMENTOS50247022/0001-29  Junho    2019   000003331DAMIAO DA SILVA PRAXEDES                AÇOUGUEIRO SENIOR I                        00004920900040AÇOUGUE           AÇOUGUE                                 23714260000013699000000/00/000000243060
100001Horas Normais       P0024306000022000
100036Horas Extras c/ 100%P0001432600000629
100040Horas Extras c/ 60% P0000056000000019
100060Adicional Noturno   P0000058600000239
100065DSR Reflexo H.ExtrasP0000453100000405
100069DSR Reflexo Adic    P0000017800000048
100250Desc.Adto Salarial  D0009485800000000
100302INSS                D0002369100000900
100310IRRF Adto Salarial  D0000236600000000
100545Refeição            D0000010000000100
2002632410012101500142226002632410026324100021059001660170000000000/00/0000
3
0PUBLIC COMERCIO A.VAREJISTA DE ALIMENTOS50247022/0002-00  Junho    2019   000004122DAMIAO TACITO LACERDA ROBERTO           AÇOUGUEIRO PL                              000041600355  AÇOUGUE           AÇOUGUE                                 01341350000024742000000/00/000000195639
100001Horas Normais       P0019563900022000
100036Horas Extras c/ 100%P0001286500000714
100043Horas extras 60% BH P0000023700000010
100065DSR Reflexo H.ExtrasP0000327600000341
100250Desc.Adto Salarial  D0007825600000000
100302INSS                D0001908100000900
100545Refeição            D0000010000000100
100594Coparticipação      D0000150000001500
2002120170009893700113080002120170021201700016961001337610000000000/00/0000
3
0PUBLIC COMERCIO A.VAREJISTA DE ALIMENTOS50247022/0001-29  Junho    2019   000004172DANILO DE ARRUDA                        AÇOUGUEIRO JR                              00006467900367AÇOUGUE           AÇOUGUE                                 23715210000023774050500/00/000000188099
100001Horas Normais       P0018182900021240
100036Horas Extras c/ 100%P0001242600000716
100043Horas extras 60% BH P0000002300000001
100056Hrs Atestado até 15 P0000627000000720
100060Adicional Noturno   P0000037000000210
100065DSR Reflexo H.ExtrasP0000378900000425
100069DSR Reflexo Adic    P0000011300000039
100250Desc.Adto Salarial  D0007524000000000
100302INSS                D0001843300000900
100361Farmácia            D0001196600000000
100545Refeição            D0000010000000100
2002048200010573900099081002048200020482000016385001295800000000000/00/0000
3
0PUBLIC COMERCIO A.VAREJISTA DE ALIMENTOS50247022/0002-00  Junho    2019   000003766EDVALDO TEOFILO DA SILVA                AÇOUGUEIRO JR                              000084287341  AÇOUGUE           AÇOUGUE                                 23719960000038969030300/00/000000173396
100001Horas Normais       P0017339600022000
100036Horas Extras c/ 100%P0001100800000659
100060Adicional Noturno   P0000052500000320
100065DSR Reflexo H.ExtrasP0000275200000329
100069DSR Reflexo Adic    P0000013100000050
100250Desc.Adto Salarial  D0006935800000000
100296Vale Transporte     D0001040400005000
100302INSS                D0001690300000900
100545Refeição            D0000010000000100
2001878120009676500091047001878120018781200015024001184540000000000/00/0000
3
0PUBLIC COMERCIO A.VAREJISTA DE ALIMENTOS50247022/0002-00  Junho    2019   000002035ELENILSON FERREIRA DE ALMEIDA           GERENTE DE PERECIVEIS                      000028786188  AÇOUGUE           AÇOUGUE                                 23715210000004884010200/00/000000469800
100001Horas Normais       P0046980000022000
100250Desc.Adto Salarial  D0016598700000000
100302INSS                D0005167800001100
100310IRRF Adto Salarial  D0002193300000000
100521Plano Saúde Dep.    D0004123200000000
100545Refeição            D0000010000000100
2004698000028093000188870004698000046980000037584002818800000000000/00/0000
3
0PUBLIC COMERCIO A.VAREJISTA DE ALIMENTOS50247022/0002-00  Junho    2019   000003630ELIABE SANTOS DE JESUS                  AÇOUGUEIRO JR                              000048246341  AÇOUGUE           AÇOUGUE                                 23726710000019897010100/00/000000173396
100001Horas Normais       P0017339600022000
100036Horas Extras c/ 100%P0001035100000634
100065DSR Reflexo H.ExtrasP0000315000000359
100250Desc.Adto Salarial  D0006935800000000
100296Vale Transporte     D0001040400004800
100302INSS                D0001663300000900
100526Saida Antecipada/AtrD0000207500000238
100545Refeição            D0000010000000100
100594Coparticipação      D0000150000001500
2001868970010007000086827001848220018482200014785001154640000000000/00/0000
3
0PUBLIC COMERCIO A.VAREJISTA DE ALIMENTOS50247022/0002-00  Junho    2019   000002352ENOQUE MEDICIS DA SILVA                 AÇOUGUEIRO SENIOR II                       000020442088  AÇOUGUE           AÇOUGUE                                 23705480000098244000000/00/000000248945
100001Horas Normais       P0024894500022000
100036Horas Extras c/ 100%P0001659600000720
100065DSR Reflexo H.ExtrasP0000414900000340
100250Desc.Adto Salarial  D0009686700000000
100296Vale Transporte     D0001493700005000
100302INSS                D0002427200000900
100310IRRF Adto Salarial  D0000271100000000
100545Refeição            D0000010000000100
2002696900013888700130803002696900026969000021575001701120000000000/00/0000
3
0PUBLIC COMERCIO A.VAREJISTA DE ALIMENTOS50247022/0002-00  Junho    2019   000003589FARNESIO PINTO DE SOUZA                 AÇOUGUEIRO PL                              0054966050030 AÇOUGUE           AÇOUGUE                                 34169200000000595000000/00/000000195639
100001Horas Normais       P0019563900022000
100036Horas Extras c/ 100%P0001330900000729
100040Horas Extras c/ 60% P0000037900000016
100043Horas extras 60% BH P0000068800000029
100060Adicional Noturno   P0000051900000255
100065DSR Reflexo H.ExtrasP0000437500000454
100069DSR Reflexo Adic    P0000015800000053
100250Desc.Adto Salarial  D0007825600000000
100296Vale Transporte     D0001173800005000
100302INSS                D0001935600000900
100545Refeição            D0000010000000100
2002150670010945000105617002150670021506700017205001368110000000000/00/0000
3
0PUBLIC COMERCIO A.VAREJISTA DE ALIMENTOS50247022/0001-29  Junho    2019   000004365HUEDER DO AMARAL SILVA                  BALC. PERECIVEIS                           000032298197  AÇOUGUE           AÇOUGUE                                 23715210000024671000100/00/000000140500
100001Horas Normais       P0014050000022000
100036Horas Extras c/ 100%P0000813200000622
100043Horas extras 60% BH P0000005100000003
100060Adicional Noturno   P0000010200000048
100065DSR Reflexo H.ExtrasP0000204600000312
100069DSR Reflexo Adic    P0000002600000012
100250Desc.Adto Salarial  D0005620000000000
100276Pensão Judicial     D0003210800002500
100302INSS                D0001206800000800
100545Refeição            D0000010000000100
2001508570010047600050381001508570015085700012068000946570000000000/00/0000
3
0PUBLIC COMERCIO A.VAREJISTA DE ALIMENTOS50247022/0002-00  Junho    2019   000003930IRANILSON GOMES DE ALMEIDA              AÇOUGUEIRO JR                              00000336300032AÇOUGUE           AÇOUGUE                                 01332800000046140030400/00/000000173396
100001Horas Normais       P0017339600022000
100036Horas Extras c/ 100%P0001145500000716
100043Horas extras 60% BH P0000275300000211
100060Adicional Noturno   P0000062000000356
100065DSR Reflexo H.ExtrasP0000432400000529
100069DSR Reflexo Adic    P0000018900000111
100250Desc.Adto Salarial  D0006935800000000
100302INSS                D0001734600000900
100545Refeição            D0000010000000100
2001927370008680400105933001927370019273700015418001233790000000000/00/0000
3
0PUBLIC COMERCIO A.VAREJISTA DE ALIMENTOS50247022/0002-00  Junho    2019   000004620JOSE ALBINO DA SILVA                    AÇOUGUEIRO JR                              000038433401  AÇOUGUE           AÇOUGUE                                 01335790000007430010100/00/000000173396
100040Horas Extras c/ 60% P0000033600000016
100060Adicional Noturno   P0000205400001302
100065DSR Reflexo H.ExtrasP0000010200000007
100069DSR Reflexo Adic    P0000062500000358
100087Folga Feriado FeriasP0001734000000300
100100Aviso Prévio IndenizP0017339600022000
100102Média Horas Extras AP0001137600001426
100110Adic.Noturno A.P.I  P0000223300001410
100126Saldo de Salário    P0010981700013920
100172Férias Proporc.ResciP0011559700014640
100174Média H.Extra FériasP0000494800000616
100182Adic.Noturno Férias P0000085800000526
1001841/3 Férias Rescisão P0004046400000000
10022213o Salário Proporc.P0008669800000600
100224Média H.Extras 13o PP0000514300000631
100232Adic.Noturno 13o ProP0000113000000710
10023613o Indenizado ResciP0001445000000100
100238Média H.Extras 13o IP0000085700000105
100246Adic.Noturno 13o IndP0000018800000111
100250Desc.Adto Salarial  D0006935800000000
100264Líquido Rescisão    D0050039600000000
100302INSS                D0001042100000800
100303INSS 13o Salário    D0000743700000800
2005876120058761200000000001302740042574500000000000609160000000000/00/0000
3
0PUBLIC COMERCIO A.VAREJISTA DE ALIMENTOS50247022/0002-00  Junho    2019   000003786JOSE FERNANDO DE JESUS SANTOS           SUB.ENCAR.ACOUGUE                          0088253150030 AÇOUGUE           AÇOUGUE                                 23702720000001581020200/00/000000265516
100001Horas Normais       P0026551600022000
100060Adicional Noturno   P0000020500000051
100069DSR Reflexo Adic    P0000007500000018
100250Desc.Adto Salarial  D0010463500000000
100296Vale Transporte     D0001593100004800
100302INSS                D0002392100000900
100310IRRF Adto Salarial  D0000157100000000
100521Plano Saúde Dep.    D0002748800000000
100545Refeição            D0000010000000100
2002657960017364600092150002657960026579600021263001595900000000000/00/0000
3
0PUBLIC COMERCIO A.VAREJISTA DE ALIMENTOS50247022/0002-00  Junho    2019   000003698JOSUEL SEBASTIAO VIEIRA                 AÇOUGUEIRO PL                              000072075040  AÇOUGUE           AÇOUGUE                                 10432800000001445010300/00/000000195639
100001Horas Normais       P0019563900022000
100036Horas Extras c/ 100%P0001372400000743
100065DSR Reflexo H.ExtrasP0000417700000441
100250Desc.Adto Salarial  D0007825600000000
100296Vale Transporte     D0001173800004800
100302INSS                D0001919900000900
100526Saida Antecipada/AtrD0000020700000014
100545Refeição            D0000010000000100
2002135400010950000104040002133330021333300017066001350770000000000/00/0000
3
0PUBLIC COMERCIO A.VAREJISTA DE ALIMENTOS50247022/0002-00  Junho    2019   000003787LEANDRO DE JESUS SOUZA                  SUB.ENCAR.ACOUGUE                          000507815002  AÇOUGUE           AÇOUGUE                                 00542540001056844010200/00/000000265516
100001Horas Normais       P0026551600022000
100036Horas Extras c/ 100%P0001818400000732
100043Horas extras 60% BH P0000035400000011
100060Adicional Noturno   P0000447800001833
100065DSR Reflexo H.ExtrasP0000463500000350
100069DSR Reflexo Adic    P0000112000000438
100250Desc.Adto Salarial  D0010437400000000
100302INSS                D0003237100001100
100310IRRF Adto Salarial  D0000183200000000
100545Refeição            D0000010000000100
2002942870013867700155610002942870029428700023542001880810000000000/00/0000
3
0PUBLIC COMERCIO A.VAREJISTA DE ALIMENTOS50247022/0001-29  Junho    2019   000004886LUCAS JOMAR DE ARAUJO MADALENA          AÇOUGUEIRO JR                              0000057270171 AÇOUGUE           AÇOUGUE                                 23715210000026273030300/00/000000188099
100001Horas Normais       P0018809900022000
100036Horas Extras c/ 100%P0001168500000650
100043Horas extras 60% BH P0000004600000002
100060Adicional Noturno   P0000281600001628
100065DSR Reflexo H.ExtrasP0000293300000325
100069DSR Reflexo Adic    P0000070400000407
100250Desc.Adto Salarial  D0007524000000000
100296Vale Transporte     D0001128600005000
100302INSS                D0001856500000900
100545Refeição            D0000010000000100
2002062830010519100101092002062830020628300016502001310430000000000/00/0000
3
0PUBLIC COMERCIO A.VAREJISTA DE ALIMENTOS50247022/0001-29  Junho    2019   000002775LUCAS NEVES BORGES                      AÇOUGUEIRO JR                              000096215415  AÇOUGUE           AÇOUGUE                                 23715210000006812000000/00/000000188099
100001Horas Normais       P0018809900022000
100250Desc.Adto Salarial  D0007524000000000
100296Vale Transporte     D0001128600004800
100302INSS                D0001682100000900
100526Saida Antecipada/AtrD0000119700000124
100530Empréstimo (Parcela)D0000949300000000
100545Refeição            D0000010000000100
2001880990011413700073962001869020018690200014952001116620000000000/00/0000
3
0PUBLIC COMERCIO A.VAREJISTA DE ALIMENTOS50247022/0001-29  Junho    2019   000003185LUCIANO SANTOS BORGES                   AÇOUGUEIRO PL                              000031698054  AÇOUGUE           AÇOUGUE                                 23715210000025719010200/00/000000218170
100001Horas Normais       P0021817000022000
100036Horas Extras c/ 100%P0001428000000712
100060Adicional Noturno   P0000032400000138
100065DSR Reflexo H.ExtrasP0000357000000336
100069DSR Reflexo Adic    P0000008100000024
100250Desc.Adto Salarial  D0008726800000000
100302INSS                D0002125400000900
100526Saida Antecipada/AtrD0000026400000016
100545Refeição            D0000010000000100
2002364250010888600127539002361610023616100018892001488930000000000/00/0000
3
0PUBLIC COMERCIO A.VAREJISTA DE ALIMENTOS50247022/0001-29  Junho    2019   000004490MANOEL SOUZA MOTA                       AÇOUGUEIRO JR                              00008240200341AÇOUGUE           AÇOUGUE                                 23715210000025061010100/00/000000188099
100256Insuficiência de SalV0002029700000000
100258Insuficiencia AnteriD0000566600000000
100296Vale Transporte     D0001188200002600
100594Coparticipação      D0000274900002749
2000202970002029700000000000000000000000000000000000000000000000000/00/0000
3
0PUBLIC COMERCIO A.VAREJISTA DE ALIMENTOS50247022/0001-29  Junho    2019   000002692MARCIO LIMA DE OLIVEIRA                 AÇOUGUEIRO SR                              000000009378  AÇOUGUE           AÇOUGUE                                 23727230000026708000000/00/000000243060
100001Horas Normais       P0024306000022000
100036Horas Extras c/ 100%P0001635100000724
100065DSR Reflexo H.ExtrasP0000497600000430
100250Desc.Adto Salarial  D0009491500000000
100302INSS                D0002379400000900
100310IRRF Adto Salarial  D0000230900000000
100545Refeição            D0000010000000100
2002643870012111800143269002643870026438700021150001671630000000000/00/0000
3
0PUBLIC COMERCIO A.VAREJISTA DE ALIMENTOS50247022/0001-29  Junho    2019   000003891MARCIO OLIVEIRA DE SANTANA              AÇOUGUEIRO SENIOR I                        000058670225  AÇOUGUE           AÇOUGUE                                 23715210000022860010300/00/000000243060
100001Horas Normais       P0022685600020520
100036Horas Extras c/ 100%P0001649900000728
100040Horas Extras c/ 60% P0000008800000003
100056Hrs Atestado até 15 P0001620400001440
100060Adicional Noturno   P0000010700000029
100065DSR Reflexo H.ExtrasP0000414700000345
100069DSR Reflexo Adic    P0000002700000007
100250Desc.Adto Salarial  D0009722400000000
100302INSS                D0002375300000900
100545Refeição            D0000010000000100
2002639280012107700142851002639280026392800021114001667040000000000/00/0000
3
0PUBLIC COMERCIO A.VAREJISTA DE ALIMENTOS50247022/0002-00  Junho    2019   000003996MARCONI CABRAL DOS SANTOS               AÇOUGUEIRO JR                              0000636480211 AÇOUGUE           AÇOUGUE                                 23715210000023250020200/00/000000173396
100001Horas Normais       P0016761600021240
100036Horas Extras c/ 100%P0001095500000657
100056Hrs Atestado até 15 P0000578000000720
100060Adicional Noturno   P0000124800000755
100065DSR Reflexo H.ExtrasP0000273900000328
100069DSR Reflexo Adic    P0000031200000158
100250Desc.Adto Salarial  D0006935800000000
100296Vale Transporte     D0001040400004400
100302INSS                D0001697800000900
100545Refeição            D0000010000000100
2001886500009684000091810001886500018865000015092001192920000000000/00/0000
3
0PUBLIC COMERCIO A.VAREJISTA DE ALIMENTOS50247022/0001-29  Junho    2019   000004549MARINHO PEREIRA DE JESUS                AÇOUGUEIRO JR                              000088671075  AÇOUGUE           AÇOUGUE                                 23715210000025281010100/00/000000188099
100001Horas Normais       P0018809900022000
100036Horas Extras c/ 100%P0001111500000630
100043Horas extras 60% BH P0000013700000006
100060Adicional Noturno   P0000207500001208
100065DSR Reflexo H.ExtrasP0000342500000400
100069DSR Reflexo Adic    P0000063200000341
100250Desc.Adto Salarial  D0007524000000000
100296Vale Transporte     D0001128600004800
100302INSS                D0001849300000900
100545Refeição            D0000010000000100
2002054830010511900100364002054830020548300016438001302430000000000/00/0000
3
0PUBLIC COMERCIO A.VAREJISTA DE ALIMENTOS50247022/0001-29  Junho    2019   000004462MATHEUS MELO BUZZI                      BALC. PERECIVEIS                           00009961200393AÇOUGUE           AÇOUGUE                                 23715210000024972010100/00/000000140500
100001Horas Normais       P0013581700021240
100043Horas extras 60% BH P0000001700000001
100056Hrs Atestado até 15 P0000468300000720
100065DSR Reflexo H.ExtrasP0000000400000000
100250Desc.Adto Salarial  D0005620000000000
100296Vale Transporte     D0000843000004600
100302INSS                D0001124100000800
100545Refeição            D0000010000000100
2001405210007597100064550001405210014052100011241000843210000000000/00/0000
3
0PUBLIC COMERCIO A.VAREJISTA DE ALIMENTOS50247022/0001-29  Junho    2019   000000913MIZAEL GOMES DA SILVA                   LIDER AÇOUGUE                              00006110500061AÇOUGUE           AÇOUGUE                                 23715210000090262010100/00/000000319816
100001Horas Normais       P0031981600022000
100036Horas Extras c/ 100%P0002166000000727
100043Horas extras 60% BH P0000031000000008
100065DSR Reflexo H.ExtrasP0000549300000346
100250Desc.Adto Salarial  D0012224000000000
100302INSS                D0003820000001100
100310IRRF Adto Salarial  D0000568600000000
100521Plano Saúde Dep.    D0000010000000000
100545Refeição            D0000010000000100
100594Coparticipação      D0000197900001979
2003472790016830500178974003472790034727900027782002193530000000000/00/0000
3
0PUBLIC COMERCIO A.VAREJISTA DE ALIMENTOS50247022/0001-29  Junho    2019   000002451NILTON RAMOS BATISTA                    AÇOUGUEIRO PL                              000054148069  AÇOUGUE           AÇOUGUE                                 23715210000030925000100/00/000000218170
100001Horas Normais       P0021817000022000
100036Horas Extras c/ 100%P0001477600000727
100065DSR Reflexo H.ExtrasP0000449700000432
100250Desc.Adto Salarial  D0008726800000000
100276Pensão Judicial     D0006494400003300
100296Vale Transporte     D0001309000004800
100302INSS                D0002136900000900
100545Refeição            D0000010000000100
100594Coparticipação      D0000100000001000
2002374430018777100049672002374430023744300018995001501750000000000/00/0000
3
0PUBLIC COMERCIO A.VAREJISTA DE ALIMENTOS50247022/0001-29  Junho    2019   000004492PAULO CESAR PINTO DE MORAES             BALC. PERECIVEIS                           000090536195  AÇOUGUE           AÇOUGUE                                 23734810000013346010100/00/000000140500
100001Horas Normais       P0014050000022000
100036Horas Extras c/ 100%P0000945200000724
100043Horas extras 60% BH P0000011900000007
100065DSR Reflexo H.ExtrasP0000291300000433
100250Desc.Adto Salarial  D0005620000000000
100296Vale Transporte     D0000843000004800
100302INSS                D0001223800000800
100530Empréstimo (Parcela)D0002754000000000
100545Refeição            D0000010000000100
2001529840010450800048476001529840015298400012238000967840000000000/00/0000
3
0PUBLIC COMERCIO A.VAREJISTA DE ALIMENTOS50247022/0001-29  Junho    2019   000003692RAIMUNDO OLIVEIRA FILHO                 AÇOUGUEIRO JR                              000087849007  AÇOUGUE           AÇOUGUE                                 23712430000013119000100/00/000000188099
100001Horas Normais       P0018809900022000
100036Horas Extras c/ 100%P0001248300000718
100065DSR Reflexo H.ExtrasP0000312100000339
100250Desc.Adto Salarial  D0007524000000000
100296Vale Transporte     D0001128600004800
100302INSS                D0001833300000900
100545Refeição            D0000010000000100
100594Coparticipação      D0000307600003076
2002037030010803500095668002037030020370300016296001284630000000000/00/0000
3
0PUBLIC COMERCIO A.VAREJISTA DE ALIMENTOS50247022/0001-29  Junho    2019   000004917REINALDO COSTA SOUSA                    AÇOUGUEIRO JR                              0000109730024 AÇOUGUE           AÇOUGUE                                 00000000000000000010100/00/000000000000
100001Horas Normais       P0008778000010240
100036Horas Extras c/ 100%P0001162800000648
100060Adicional Noturno   P0000068100000359
100065DSR Reflexo H.ExtrasP0000465100000526
100069DSR Reflexo Adic    P0000027200000135
100302INSS                D0000840000000800
100545Refeição            D0000010000000100
2001050120000850000096512001050120010501200008400001050120000000000/00/0000
3
0PUBLIC COMERCIO A.VAREJISTA DE ALIMENTOS50247022/0002-00  Junho    2019   000003997ROBERTO PEREIRA DINIZ                   AÇOUGUEIRO PL                              00008983800337AÇOUGUE           AÇOUGUE                                 23715210000023254020200/00/000000195639
100001Horas Normais       P0001304300001440
100012Horas Férias DiurnasP0018259600020520
100043Horas extras 60% BH P0000002400000001
100065DSR Reflexo H.ExtrasP0000000600000000
100070Adic.Noturno Férias P0000102700000546
100134Média Horas Extras FP0001780300002001
1001401/3 Férias          P0006713600000000
100281Desconto Adto FériasD0024439100000000
100301INSS Férias         D0002417100000900
100302INSS                D0000117600000900
100545Refeição            D0000010000000100
2002816350026983800011797002816350028163500022530000130730000000000/00/000003/06/2019 a 03/07/2019  
3
0PUBLIC COMERCIO A.VAREJISTA DE ALIMENTOS50247022/0001-29  Junho    2019   000003000RONILTON ANTONIO DE OLIVEIRA            AÇOUGUEIRO PL                              000011185343  AÇOUGUE           AÇOUGUE                                 23715210000020038010100/00/000000218170
100001Horas Normais       P0021089800021240
100036Horas Extras c/ 100%P0001461100000722
100043Horas extras 60% BH P0000026400000010
100056Hrs Atestado até 15 P0000727200000720
100065DSR Reflexo H.ExtrasP0000371900000345
100250Desc.Adto Salarial  D0008726800000000
100302INSS                D0002130800000900
100545Refeição            D0000010000000100
2002367640010867600128088002367640023676400018941001494960000000000/00/0000
3
0PUBLIC COMERCIO A.VAREJISTA DE ALIMENTOS50247022/0002-00  Junho    2019   000003783SONIVAL ALVES DE OLIVEIRA               AÇOUGUEIRO SENIOR I                        00006116800033AÇOUGUE           AÇOUGUE                                 34102640000060029000200/00/000000228915
100001Horas Normais       P0022891500022000
100036Horas Extras c/ 100%P0001487900000709
100065DSR Reflexo H.ExtrasP0000372000000334
100250Desc.Adto Salarial  D0009156600000000
100296Vale Transporte     D0001373500004800
100302INSS                D0002227600000900
100545Refeição            D0000010000000100
100594Coparticipação      D0000150000001500
2002475140012917700118337002475140024751400019801001559480000000000/00/0000
3
0PUBLIC COMERCIO A.VAREJISTA DE ALIMENTOS50247022/0001-29  Junho    2019   000004581ANTONIO ONE FERREIRA DE SOUZA           AÇOUGUEIRO JR                              00009609800228AÇOUGUE           AÇOUGUE BOVINO E SUINO                  23715210000025353000000/00/000000188099
100001Horas Normais       P0018809900022000
100036Horas Extras c/ 100%P0001171300000651
100043Horas extras 60% BH P0000002300000001
100060Adicional Noturno   P0000250500001439
100065DSR Reflexo H.ExtrasP0000293400000325
100069DSR Reflexo Adic    P0000062600000339
100250Desc.Adto Salarial  D0007524000000000
100302INSS                D0001853100000900
100545Refeição            D0000010000000100
2002059000009387100112029002059000020590000016472001306600000000000/00/0000
3
0PUBLIC COMERCIO A.VAREJISTA DE ALIMENTOS50247022/0001-29  Junho    2019   000002029CARLOS ROBERTO ARAUJO                   AÇOUGUEIRO PL                              0065816660030 AÇOUGUE           AÇOUGUE BOVINO E SUINO                  23715210000004859000000/00/000000218170
100001Horas Normais       P0021817000022000
100036Horas Extras c/ 100%P0001444500000717
100043Horas extras 60% BH P0000013200000005
100065DSR Reflexo H.ExtrasP0000364400000340
100250Desc.Adto Salarial  D0008726800000000
100302INSS                D0002127500000900
100545Refeição            D0000010000000100
2002363910010864300127748002363910023639100018911001491230000000000/00/0000
3
0PUBLIC COMERCIO A.VAREJISTA DE ALIMENTOS50247022/0001-29  Junho    2019   000002410GENIVAN DOS SANTOS GONCALVES            SUB.ENCAR.ACOUGUE                          002240414010  AÇOUGUE           AÇOUGUE BOVINO E SUINO                  23715210000004880020200/00/000000265516
100001Horas Normais       P0026551600022000
100036Horas Extras c/ 100%P0001770100000720
100043Horas extras 60% BH P0000012900000004
100060Adicional Noturno   P0000075200000307
100065DSR Reflexo H.ExtrasP0000445800000341
100069DSR Reflexo Adic    P0000018800000046
100250Desc.Adto Salarial  D0010513500000000
100302INSS                D0002598600000900
100310IRRF Adto Salarial  D0000107100000000
100545Refeição            D0000010000000100
2002887440013229200156452002887440028874400023099001825380000000000/00/0000
3
0PUBLIC COMERCIO A.VAREJISTA DE ALIMENTOS50247022/0001-29  Junho    2019   000002573IVANILDO FERNANDES DOS SANTOS           AÇOUGUEIRO SR                              00004102300044AÇOUGUE           AÇOUGUE BOVINO E SUINO                  23722750000005988010300/00/000000243060
100001Horas Normais       P0001620400001440
100012Horas Férias DiurnasP0022685600020520
100043Horas extras 60% BH P0000023600000008
100060Adicional Noturno   P0000006300000017
100065DSR Reflexo H.ExtrasP0000005900000003
100069DSR Reflexo Adic    P0000001600000004
100070Adic.Noturno Férias P0000094500000416
100134Média Horas Extras FP0001878400001700
1001401/3 Férias          P0008218700000000
100281Desconto Adto FériasD0029260700000000
100301INSS Férias         D0003616500001100
100302INSS                D0000182300001100
100545Refeição            D0000010000000100
100594Coparticipação      D0000100000001000
2003453500033169500013655003453500034535000027628000165780000000000/00/000003/06/2019 a 03/07/2019  
3
0PUBLIC COMERCIO A.VAREJISTA DE ALIMENTOS50247022/0001-29  Junho    2019   000000289IVANILDO ROSA DA SILVA                  AÇOUGUEIRO PL                              00004530400022AÇOUGUE           AÇOUGUE BOVINO E SUINO                  00000000000000000000000/00/000000218170
100256Insuficiência de SalV0046282500000000
100258Insuficiencia AnteriD0045498400000000
100594Coparticipação      D0000784100007841
2004628250046282500000000000000000000000000000000000000000000000000/00/0000
3
0PUBLIC COMERCIO A.VAREJISTA DE ALIMENTOS50247022/0001-29  Junho    2019   000002135JOSE CARLOS SOUSA DE CARVALHO           AÇOUGUEIRO PL                              000085456280  AÇOUGUE           AÇOUGUE BOVINO E SUINO                  23715210000009779010200/00/000000218170
100001Horas Normais       P0001454500001440
100012Horas Férias DiurnasP0020362500020520
100070Adic.Noturno Férias P0000018200000055
100134Média Horas Extras FP0001453100001439
1001401/3 Férias          P0007277200000000
100281Desconto Adto FériasD0025908800000000
100301INSS Férias         D0003202200001100
100302INSS                D0000160000001100
100361Farmácia            D0000458400000000
100545Refeição            D0000010000000100
2003056550029739400008261003056550030565500024452000145450000000000/00/000003/06/2019 a 03/07/2019  
3
0PUBLIC COMERCIO A.VAREJISTA DE ALIMENTOS50247022/0001-29  Junho    2019   000000658MANOEL NUNES REIS                       AÇOUGUEIRO PL                              00000224300010AÇOUGUE           AÇOUGUE BOVINO E SUINO                  00000000000000000000100/00/000000218170
100256Insuficiência de SalV0019712500000000
100258Insuficiencia AnteriD0019712500000000
2001971250019712500000000000000000000000000000000000000000000000000/00/0000
3
0PUBLIC COMERCIO A.VAREJISTA DE ALIMENTOS50247022/0001-29  Junho    2019   000000632MARCOS MACENA DOS SANTOS                GERENTE AÇOUGUE                            00007727400143AÇOUGUE           AÇOUGUE BOVINO E SUINO                  23715210000091073000100/00/000000609536
100001Horas Normais       P0060953600022000
100250Desc.Adto Salarial  D0019291500000000
100302INSS                D0006423300001100
100304IRRF                D0000691000000100
100310IRRF Adto Salarial  D0005089900000000
100521Plano Saúde Dep.    D0000030000000000
100545Refeição            D0000010000000100
100594Coparticipação      D0002386900023869
2006095360033922600270310005839450060953600048762003657220000000000/00/0000
3
0PUBLIC COMERCIO A.VAREJISTA DE ALIMENTOS50247022/0002-00  Junho    2019   000004524ORLANDO RIBEIRO DE LIMA JUNIOR          AÇOUGUEIRO JR                              0091217790040 AÇOUGUE           AÇOUGUE BOVINO E SUINO                  23715210000025220000000/00/000000173396
100001Horas Normais       P0016761600021240
100036Horas Extras c/ 100%P0001342500000831
100040Horas Extras c/ 60% P0000149200000111
100043Horas extras 60% BH P0000119800000057
100056Hrs Atestado até 15 P0000578000000720
100060Adicional Noturno   P0000065900000411
100065DSR Reflexo H.ExtrasP0000402900000506
100069DSR Reflexo Adic    P0000016500000102
100250Desc.Adto Salarial  D0006935800000000
100296Vale Transporte     D0001040400005000
100302INSS                D0001749200000900
100545Refeição            D0000010000000100
2001943640009735400097010001943640019436400015549001250060000000000/00/0000
3
0PUBLIC COMERCIO A.VAREJISTA DE ALIMENTOS50247022/0002-00  Junho    2019   000003638RENATA MARIA DE PAULA DOS SANTOS        AÇOUGUEIRO JR                              000040958343  AÇOUGUE           AÇOUGUE BOVINO E SUINO                  23715210000022486010100/00/000000173396
100016Horas Aux.MaternidadP0017339600022000
100043Horas extras 60% BH P0000061000000029
100065DSR Reflexo H.ExtrasP0000015300000011
100250Desc.Adto Salarial  D0006935800000000
100302INSS                D0001393200000800
100594Coparticipação      D0000510200005102
2001741590008839200085767001741590017415900013932001048010000000000/00/0000
3
0PUBLIC COMERCIO A.VAREJISTA DE ALIMENTOS50247022/0001-29  Junho    2019   000001626ROSALIO SANTOS DE SOUZA                 AÇOUGUEIRO SR II                           00006268100473AÇOUGUE           AÇOUGUE BOVINO E SUINO                  23715210000025842000100/00/000000288729
100001Horas Normais       P0027910500021240
100036Horas Extras c/ 100%P0001946700000725
100040Horas Extras c/ 60% P0000035000000010
100043Horas extras 60% BH P0000010500000003
100056Hrs Atestado até 15 P0000962400000720
100060Adicional Noturno   P0000018800000043
100065DSR Reflexo H.ExtrasP0000498100000347
100069DSR Reflexo Adic    P0000004700000010
100250Desc.Adto Salarial  D0011145500000000
100302INSS                D0003452500001100
100310IRRF Adto Salarial  D0000403700000000
100361Farmácia            D0000299000000000
100521Plano Saúde Dep.    D0000030000000000
100545Refeição            D0000010000000100
100594Coparticipação      D0000100000001000
2003138670015440700159460003138670031386700025109001983750000000000/00/0000
3
0PUBLIC COMERCIO A.VAREJISTA DE ALIMENTOS50247022/0001-29  Junho    2019   000000787SEVERINO DOS SANTOS ANDRADE             AÇOUGUEIRO SR II                           00000078800044AÇOUGUE           AÇOUGUE BOVINO E SUINO                  23715210000091158020300/00/000000288729
100001Horas Normais       P0028872900022000
100036Horas Extras c/ 100%P0001929200000721
100065DSR Reflexo H.ExtrasP0000482300000340
100250Desc.Adto Salarial  D0011430500000000
100302INSS                D0003441200001100
100310IRRF Adto Salarial  D0000118700000000
100530Empréstimo (Parcela)D0007375400000000
100545Refeição            D0000010000000100
2003128440022375800089086003128440031284400025027001973520000000000/00/0000
3
0PUBLIC COMERCIO A.VAREJISTA DE ALIMENTOS50247022/0002-00  Junho    2019   000003606WILLIAM OLIVEIRA DE JESUS               AÇOUGUEIRO JR                              000033685297  AÇOUGUE           AÇOUGUE BOVINO E SUINO                  23715210000022446010100/00/000000173396
100001Horas Normais       P0017339600022000
100036Horas Extras c/ 100%P0001284700000809
100065DSR Reflexo H.ExtrasP0000391000000457
100250Desc.Adto Salarial  D0006935800000000
100302INSS                D0001711300000900
100545Refeição            D0000010000000100
2001901530008657100103582001901530019015300015212001207950000000000/00/0000
3
0PUBLIC COMERCIO A.VAREJISTA DE ALIMENTOS50247022/0001-29  Junho    2019   000004817AMANDA ANDRADE DA SILVA                 BALC. PADARIA                              00005312400445PADARIA           BALCAO                                  23715210000023704000000/00/000000140500
100001Horas Normais       P0014050000022000
100036Horas Extras c/ 100%P0000902600000704
100043Horas extras 60% BH P0000008500000005
100060Adicional Noturno   P0000364400002832
100065DSR Reflexo H.ExtrasP0000227800000334
100069DSR Reflexo Adic    P0000091100000708
100250Desc.Adto Salarial  D0005620000000000
100296Vale Transporte     D0000843000005000
100302INSS                D0001251500000800
100545Refeição            D0000010000000100
2001564440007724500079199001564440015644400012515001002440000000000/00/0000
3
